{
  "_format": "hh-sol-artifact-1",
  "contractName": "AttackerFlash",
  "sourceName": "contracts/AttackerFlash.sol",
  "abi": [
    {
      "inputs": [
        {
          "internalType": "address",
          "name": "_a",
          "type": "address"
        },
        {
          "internalType": "address",
          "name": "_b",
          "type": "address"
        },
        {
          "internalType": "address",
          "name": "_amm",
          "type": "address"
        },
        {
          "internalType": "address",
          "name": "_lending",
          "type": "address"
        },
        {
          "internalType": "address",
          "name": "_beneficiary",
          "type": "address"
        }
      ],
      "stateMutability": "nonpayable",
      "type": "constructor"
    },
    {
      "inputs": [],
      "name": "amm",
      "outputs": [
        {
          "internalType": "contract IAMM",
          "name": "",
          "type": "address"
        }
      ],
      "stateMutability": "view",
      "type": "function"
    },
    {
      "inputs": [],
      "name": "beneficiary",
      "outputs": [
        {
          "internalType": "address",
          "name": "",
          "type": "address"
        }
      ],
      "stateMutability": "view",
      "type": "function"
    },
    {
      "inputs": [
        {
          "internalType": "uint256",
          "name": "amount",
          "type": "uint256"
        }
      ],
      "name": "depositMyCollateral",
      "outputs": [],
      "stateMutability": "nonpayable",
      "type": "function"
    },
    {
      "inputs": [
        {
          "internalType": "uint256",
          "name": "amount",
          "type": "uint256"
        },
        {
          "internalType": "bytes",
          "name": "",
          "type": "bytes"
        }
      ],
      "name": "executeOperation",
      "outputs": [],
      "stateMutability": "nonpayable",
      "type": "function"
    },
    {
      "inputs": [],
      "name": "lending",
      "outputs": [
        {
          "internalType": "contract ILending",
          "name": "",
          "type": "address"
        }
      ],
      "stateMutability": "view",
      "type": "function"
    },
    {
      "inputs": [
        {
          "internalType": "uint256",
          "name": "amount",
          "type": "uint256"
        }
      ],
      "name": "manualBorrow",
      "outputs": [],
      "stateMutability": "nonpayable",
      "type": "function"
    },
    {
      "inputs": [],
      "name": "tokenA",
      "outputs": [
        {
          "internalType": "contract IERC20",
          "name": "",
          "type": "address"
        }
      ],
      "stateMutability": "view",
      "type": "function"
    },
    {
      "inputs": [],
      "name": "tokenB",
      "outputs": [
        {
          "internalType": "contract IERC20",
          "name": "",
          "type": "address"
        }
      ],
      "stateMutability": "view",
      "type": "function"
    }
  ],
  "bytecode": "0x60806040523480156200001157600080fd5b50604051620014d8380380620014d88339818101604052810190620000379190620001f0565b846000806101000a81548173ffffffffffffffffffffffffffffffffffffffff021916908373ffffffffffffffffffffffffffffffffffffffff16021790555083600160006101000a81548173ffffffffffffffffffffffffffffffffffffffff021916908373ffffffffffffffffffffffffffffffffffffffff16021790555082600260006101000a81548173ffffffffffffffffffffffffffffffffffffffff021916908373ffffffffffffffffffffffffffffffffffffffff16021790555081600360006101000a81548173ffffffffffffffffffffffffffffffffffffffff021916908373ffffffffffffffffffffffffffffffffffffffff16021790555080600460006101000a81548173ffffffffffffffffffffffffffffffffffffffff021916908373ffffffffffffffffffffffffffffffffffffffff160217905550505050505062000278565b600080fd5b600073ffffffffffffffffffffffffffffffffffffffff82169050919050565b6000620001b8826200018b565b9050919050565b620001ca81620001ab565b8114620001d657600080fd5b50565b600081519050620001ea81620001bf565b92915050565b600080600080600060a086880312156200020f576200020e62000186565b5b60006200021f88828901620001d9565b95505060206200023288828901620001d9565b94505060406200024588828901620001d9565b93505060606200025888828901620001d9565b92505060806200026b88828901620001d9565b9150509295509295909350565b61125080620002886000396000f3fe608060405234801561001057600080fd5b50600436106100885760003560e01c8063829c3c811161005b578063829c3c811461010557806395e97eee14610121578063af6662681461013f578063cfaec0da1461015b57610088565b80630fc63d101461008d5780632a943945146100ab57806338af3eed146100c95780635f64b55b146100e7575b600080fd5b610095610177565b6040516100a29190610d66565b60405180910390f35b6100b361019b565b6040516100c09190610da2565b60405180910390f35b6100d16101c1565b6040516100de9190610dde565b60405180910390f35b6100ef6101e7565b6040516100fc9190610d66565b60405180910390f35b61011f600480360381019061011a9190610e9e565b61020d565b005b6101296107b1565b6040516101369190610f1f565b60405180910390f35b61015960048036038101906101549190610f3a565b6107d7565b005b61017560048036038101906101709190610f3a565b610a59565b005b60008054906101000a900473ffffffffffffffffffffffffffffffffffffffff1681565b600260009054906101000a900473ffffffffffffffffffffffffffffffffffffffff1681565b600460009054906101000a900473ffffffffffffffffffffffffffffffffffffffff1681565b600160009054906101000a900473ffffffffffffffffffffffffffffffffffffffff1681565b60008054906101000a900473ffffffffffffffffffffffffffffffffffffffff1673ffffffffffffffffffffffffffffffffffffffff1663095ea7b3600260009054906101000a900473ffffffffffffffffffffffffffffffffffffffff16856040518363ffffffff1660e01b815260040161028a929190610f76565b6020604051808303816000875af11580156102a9573d6000803e3d6000fd5b505050506040513d601f19601f820116820180604052508101906102cd9190610fd7565b50600260009054906101000a900473ffffffffffffffffffffffffffffffffffffffff1673ffffffffffffffffffffffffffffffffffffffff166303102091846040518263ffffffff1660e01b81526004016103299190611004565b6020604051808303816000875af1158015610348573d6000803e3d6000fd5b505050506040513d601f19601f8201168201806040525081019061036c9190611034565b506000600260009054906101000a900473ffffffffffffffffffffffffffffffffffffffff1673ffffffffffffffffffffffffffffffffffffffff1663dc76fabc6040518163ffffffff1660e01b8152600401602060405180830381865afa1580156103dc573d6000803e3d6000fd5b505050506040513d601f19601f820116820180604052508101906104009190611034565b90506000600360009054906101000a900473ffffffffffffffffffffffffffffffffffffffff1673ffffffffffffffffffffffffffffffffffffffff166303e43c3a306040518263ffffffff1660e01b815260040161045f9190610dde565b602060405180830381865afa15801561047c573d6000803e3d6000fd5b505050506040513d601f19601f820116820180604052508101906104a09190611034565b90506000670de0b6b3a764000083836104b99190611090565b6104c39190611101565b90506000612710611388836104d89190611090565b6104e29190611101565b9050600360009054906101000a900473ffffffffffffffffffffffffffffffffffffffff1673ffffffffffffffffffffffffffffffffffffffff1663c5ebeaec826040518263ffffffff1660e01b815260040161053f9190611004565b600060405180830381600087803b15801561055957600080fd5b505af115801561056d573d6000803e3d6000fd5b505050506000600160009054906101000a900473ffffffffffffffffffffffffffffffffffffffff1673ffffffffffffffffffffffffffffffffffffffff166370a08231306040518263ffffffff1660e01b81526004016105ce9190610dde565b602060405180830381865afa1580156105eb573d6000803e3d6000fd5b505050506040513d601f19601f8201168201806040525081019061060f9190611034565b905060008111156106de57600160009054906101000a900473ffffffffffffffffffffffffffffffffffffffff1673ffffffffffffffffffffffffffffffffffffffff1663a9059cbb600460009054906101000a900473ffffffffffffffffffffffffffffffffffffffff16836040518363ffffffff1660e01b8152600401610699929190610f76565b6020604051808303816000875af11580156106b8573d6000803e3d6000fd5b505050506040513d601f19601f820116820180604052508101906106dc9190610fd7565b505b600061271060058a6106f09190611090565b6106fa9190611101565b905060008054906101000a900473ffffffffffffffffffffffffffffffffffffffff1673ffffffffffffffffffffffffffffffffffffffff1663a9059cbb33838c6107459190611132565b6040518363ffffffff1660e01b8152600401610762929190610f76565b6020604051808303816000875af1158015610781573d6000803e3d6000fd5b505050506040513d601f19601f820116820180604052508101906107a59190610fd7565b50505050505050505050565b600360009054906101000a900473ffffffffffffffffffffffffffffffffffffffff1681565b600460009054906101000a900473ffffffffffffffffffffffffffffffffffffffff1673ffffffffffffffffffffffffffffffffffffffff163373ffffffffffffffffffffffffffffffffffffffff1614610867576040517f08c379a000000000000000000000000000000000000000000000000000000000815260040161085e906111c3565b60405180910390fd5b60008054906101000a900473ffffffffffffffffffffffffffffffffffffffff1673ffffffffffffffffffffffffffffffffffffffff166323b872dd3330846040518463ffffffff1660e01b81526004016108c4939291906111e3565b6020604051808303816000875af11580156108e3573d6000803e3d6000fd5b505050506040513d601f19601f820116820180604052508101906109079190610fd7565b5060008054906101000a900473ffffffffffffffffffffffffffffffffffffffff1673ffffffffffffffffffffffffffffffffffffffff1663095ea7b3600360009054906101000a900473ffffffffffffffffffffffffffffffffffffffff16836040518363ffffffff1660e01b8152600401610985929190610f76565b6020604051808303816000875af11580156109a4573d6000803e3d6000fd5b505050506040513d601f19601f820116820180604052508101906109c89190610fd7565b50600360009054906101000a900473ffffffffffffffffffffffffffffffffffffffff1673ffffffffffffffffffffffffffffffffffffffff1663bad4a01f826040518263ffffffff1660e01b8152600401610a249190611004565b600060405180830381600087803b158015610a3e57600080fd5b505af1158015610a52573d6000803e3d6000fd5b5050505050565b600460009054906101000a900473ffffffffffffffffffffffffffffffffffffffff1673ffffffffffffffffffffffffffffffffffffffff163373ffffffffffffffffffffffffffffffffffffffff1614610ae9576040517f08c379a0000000000000000000000000000000000000000000000000000000008152600401610ae0906111c3565b60405180910390fd5b600360009054906101000a900473ffffffffffffffffffffffffffffffffffffffff1673ffffffffffffffffffffffffffffffffffffffff1663c5ebeaec826040518263ffffffff1660e01b8152600401610b449190611004565b600060405180830381600087803b158015610b5e57600080fd5b505af1158015610b72573d6000803e3d6000fd5b505050506000600160009054906101000a900473ffffffffffffffffffffffffffffffffffffffff1673ffffffffffffffffffffffffffffffffffffffff166370a08231306040518263ffffffff1660e01b8152600401610bd39190610dde565b602060405180830381865afa158015610bf0573d6000803e3d6000fd5b505050506040513d601f19601f82011682018060405250810190610c149190611034565b90506000811115610ce357600160009054906101000a900473ffffffffffffffffffffffffffffffffffffffff1673ffffffffffffffffffffffffffffffffffffffff1663a9059cbb600460009054906101000a900473ffffffffffffffffffffffffffffffffffffffff16836040518363ffffffff1660e01b8152600401610c9e929190610f76565b6020604051808303816000875af1158015610cbd573d6000803e3d6000fd5b505050506040513d601f19601f82011682018060405250810190610ce19190610fd7565b505b5050565b600073ffffffffffffffffffffffffffffffffffffffff82169050919050565b6000819050919050565b6000610d2c610d27610d2284610ce7565b610d07565b610ce7565b9050919050565b6000610d3e82610d11565b9050919050565b6000610d5082610d33565b9050919050565b610d6081610d45565b82525050565b6000602082019050610d7b6000830184610d57565b92915050565b6000610d8c82610d33565b9050919050565b610d9c81610d81565b82525050565b6000602082019050610db76000830184610d93565b92915050565b6000610dc882610ce7565b9050919050565b610dd881610dbd565b82525050565b6000602082019050610df36000830184610dcf565b92915050565b600080fd5b600080fd5b6000819050919050565b610e1681610e03565b8114610e2157600080fd5b50565b600081359050610e3381610e0d565b92915050565b600080fd5b600080fd5b600080fd5b60008083601f840112610e5e57610e5d610e39565b5b8235905067ffffffffffffffff811115610e7b57610e7a610e3e565b5b602083019150836001820283011115610e9757610e96610e43565b5b9250929050565b600080600060408486031215610eb757610eb6610df9565b5b6000610ec586828701610e24565b935050602084013567ffffffffffffffff811115610ee657610ee5610dfe565b5b610ef286828701610e48565b92509250509250925092565b6000610f0982610d33565b9050919050565b610f1981610efe565b82525050565b6000602082019050610f346000830184610f10565b92915050565b600060208284031215610f5057610f4f610df9565b5b6000610f5e84828501610e24565b91505092915050565b610f7081610e03565b82525050565b6000604082019050610f8b6000830185610dcf565b610f986020830184610f67565b9392505050565b60008115159050919050565b610fb481610f9f565b8114610fbf57600080fd5b50565b600081519050610fd181610fab565b92915050565b600060208284031215610fed57610fec610df9565b5b6000610ffb84828501610fc2565b91505092915050565b60006020820190506110196000830184610f67565b92915050565b60008151905061102e81610e0d565b92915050565b60006020828403121561104a57611049610df9565b5b60006110588482850161101f565b91505092915050565b7f4e487b7100000000000000000000000000000000000000000000000000000000600052601160045260246000fd5b600061109b82610e03565b91506110a683610e03565b92508282026110b481610e03565b915082820484148315176110cb576110ca611061565b5b5092915050565b7f4e487b7100000000000000000000000000000000000000000000000000000000600052601260045260246000fd5b600061110c82610e03565b915061111783610e03565b925082611127576111266110d2565b5b828204905092915050565b600061113d82610e03565b915061114883610e03565b92508282019050808211156111605761115f611061565b5b92915050565b600082825260208201905092915050565b7f6f6e6c792061747461636b657200000000000000000000000000000000000000600082015250565b60006111ad600d83611166565b91506111b882611177565b602082019050919050565b600060208201905081810360008301526111dc816111a0565b9050919050565b60006060820190506111f86000830186610dcf565b6112056020830185610dcf565b6112126040830184610f67565b94935050505056fea264697066735822122098aadf6ba9a35455604ddd1cb53283fe54a27236c08a2621cb251d30a044277d64736f6c63430008180033",
  "linkReferences": {},
  "deployedLinkReferences": {}
}