{
  "_format": "hh-sol-artifact-1",
  "contractName": "AttackerFlash",
  "sourceName": "contracts/AttackerFlash.sol",
  "abi": [
    {
      "inputs": [
        {
          "internalType": "address",
          "name": "_tokenA",
          "type": "address"
        },
        {
          "internalType": "address",
          "name": "_tokenB",
          "type": "address"
        },
        {
          "internalType": "address",
          "name": "_amm1",
          "type": "address"
        },
        {
          "internalType": "address",
          "name": "_amm2",
          "type": "address"
        },
        {
          "internalType": "address",
          "name": "_lending",
          "type": "address"
        },
        {
          "internalType": "address",
          "name": "_flashProvider",
          "type": "address"
        },
        {
          "internalType": "address",
          "name": "_beneficiary",
          "type": "address"
        }
      ],
      "stateMutability": "nonpayable",
      "type": "constructor"
    },
    {
      "inputs": [],
      "name": "amm1",
      "outputs": [
        {
          "internalType": "contract IAMM",
          "name": "",
          "type": "address"
        }
      ],
      "stateMutability": "view",
      "type": "function"
    },
    {
      "inputs": [],
      "name": "amm2",
      "outputs": [
        {
          "internalType": "contract IAMM",
          "name": "",
          "type": "address"
        }
      ],
      "stateMutability": "view",
      "type": "function"
    },
    {
      "inputs": [],
      "name": "beneficiary",
      "outputs": [
        {
          "internalType": "address",
          "name": "",
          "type": "address"
        }
      ],
      "stateMutability": "view",
      "type": "function"
    },
    {
      "inputs": [],
      "name": "debugBorrowAmount",
      "outputs": [
        {
          "internalType": "uint256",
          "name": "",
          "type": "uint256"
        }
      ],
      "stateMutability": "view",
      "type": "function"
    },
    {
      "inputs": [],
      "name": "debugBoughtB",
      "outputs": [
        {
          "internalType": "uint256",
          "name": "",
          "type": "uint256"
        }
      ],
      "stateMutability": "view",
      "type": "function"
    },
    {
      "inputs": [],
      "name": "debugCollateralValueInA",
      "outputs": [
        {
          "internalType": "uint256",
          "name": "",
          "type": "uint256"
        }
      ],
      "stateMutability": "view",
      "type": "function"
    },
    {
      "inputs": [],
      "name": "debugContractBalanceAfter",
      "outputs": [
        {
          "internalType": "uint256",
          "name": "",
          "type": "uint256"
        }
      ],
      "stateMutability": "view",
      "type": "function"
    },
    {
      "inputs": [],
      "name": "debugFlashFee",
      "outputs": [
        {
          "internalType": "uint256",
          "name": "",
          "type": "uint256"
        }
      ],
      "stateMutability": "view",
      "type": "function"
    },
    {
      "inputs": [],
      "name": "debugInflatedPrice",
      "outputs": [
        {
          "internalType": "uint256",
          "name": "",
          "type": "uint256"
        }
      ],
      "stateMutability": "view",
      "type": "function"
    },
    {
      "inputs": [],
      "name": "debugLTVUsed",
      "outputs": [
        {
          "internalType": "uint256",
          "name": "",
          "type": "uint256"
        }
      ],
      "stateMutability": "view",
      "type": "function"
    },
    {
      "inputs": [],
      "name": "debugLeftoverA",
      "outputs": [
        {
          "internalType": "uint256",
          "name": "",
          "type": "uint256"
        }
      ],
      "stateMutability": "view",
      "type": "function"
    },
    {
      "inputs": [],
      "name": "debugLoanedAmount",
      "outputs": [
        {
          "internalType": "uint256",
          "name": "",
          "type": "uint256"
        }
      ],
      "stateMutability": "view",
      "type": "function"
    },
    {
      "inputs": [],
      "name": "debugMaxBorrowA",
      "outputs": [
        {
          "internalType": "uint256",
          "name": "",
          "type": "uint256"
        }
      ],
      "stateMutability": "view",
      "type": "function"
    },
    {
      "inputs": [],
      "name": "debugPriceMultiplier",
      "outputs": [
        {
          "internalType": "uint256",
          "name": "",
          "type": "uint256"
        }
      ],
      "stateMutability": "view",
      "type": "function"
    },
    {
      "inputs": [],
      "name": "debugPricePumpPercentage",
      "outputs": [
        {
          "internalType": "uint256",
          "name": "",
          "type": "uint256"
        }
      ],
      "stateMutability": "view",
      "type": "function"
    },
    {
      "inputs": [],
      "name": "debugProfitROI",
      "outputs": [
        {
          "internalType": "uint256",
          "name": "",
          "type": "uint256"
        }
      ],
      "stateMutability": "view",
      "type": "function"
    },
    {
      "inputs": [],
      "name": "debugRepaymentAmount",
      "outputs": [
        {
          "internalType": "uint256",
          "name": "",
          "type": "uint256"
        }
      ],
      "stateMutability": "view",
      "type": "function"
    },
    {
      "inputs": [
        {
          "internalType": "uint256",
          "name": "flashLoanAmount",
          "type": "uint256"
        }
      ],
      "name": "executeAttack",
      "outputs": [],
      "stateMutability": "nonpayable",
      "type": "function"
    },
    {
      "inputs": [
        {
          "internalType": "uint256",
          "name": "flashLoanAmount",
          "type": "uint256"
        },
        {
          "internalType": "uint256",
          "name": "bAmountToSwapBack",
          "type": "uint256"
        }
      ],
      "name": "executeAttackV2",
      "outputs": [],
      "stateMutability": "nonpayable",
      "type": "function"
    },
    {
      "inputs": [
        {
          "internalType": "uint256",
          "name": "loanedAmount",
          "type": "uint256"
        },
        {
          "internalType": "bytes",
          "name": "params",
          "type": "bytes"
        }
      ],
      "name": "executeOperation",
      "outputs": [],
      "stateMutability": "nonpayable",
      "type": "function"
    },
    {
      "inputs": [
        {
          "internalType": "uint256",
          "name": "loanedAmount",
          "type": "uint256"
        },
        {
          "internalType": "bytes",
          "name": "params",
          "type": "bytes"
        }
      ],
      "name": "executeOperationV2",
      "outputs": [],
      "stateMutability": "nonpayable",
      "type": "function"
    },
    {
      "inputs": [],
      "name": "flashProvider",
      "outputs": [
        {
          "internalType": "contract IFlashLoanProvider",
          "name": "",
          "type": "address"
        }
      ],
      "stateMutability": "view",
      "type": "function"
    },
    {
      "inputs": [],
      "name": "getDebugState",
      "outputs": [
        {
          "internalType": "uint256",
          "name": "loanedAmount",
          "type": "uint256"
        },
        {
          "internalType": "uint256",
          "name": "boughtB",
          "type": "uint256"
        },
        {
          "internalType": "uint256",
          "name": "inflatedPrice",
          "type": "uint256"
        },
        {
          "internalType": "uint256",
          "name": "collateralValueInA",
          "type": "uint256"
        },
        {
          "internalType": "uint256",
          "name": "maxBorrowA",
          "type": "uint256"
        },
        {
          "internalType": "uint256",
          "name": "flashFee",
          "type": "uint256"
        },
        {
          "internalType": "uint256",
          "name": "repaymentAmount",
          "type": "uint256"
        },
        {
          "internalType": "uint256",
          "name": "borrowAmount",
          "type": "uint256"
        },
        {
          "internalType": "uint256",
          "name": "contractBalanceAfter",
          "type": "uint256"
        },
        {
          "internalType": "uint256",
          "name": "leftoverA",
          "type": "uint256"
        },
        {
          "internalType": "uint256",
          "name": "priceMultiplier",
          "type": "uint256"
        },
        {
          "internalType": "uint256",
          "name": "profitROI",
          "type": "uint256"
        },
        {
          "internalType": "uint256",
          "name": "ltvUsed",
          "type": "uint256"
        },
        {
          "internalType": "uint256",
          "name": "pricePumpPercentage",
          "type": "uint256"
        }
      ],
      "stateMutability": "view",
      "type": "function"
    },
    {
      "inputs": [],
      "name": "getState",
      "outputs": [
        {
          "internalType": "uint256",
          "name": "beneficiaryA",
          "type": "uint256"
        },
        {
          "internalType": "uint256",
          "name": "beneficiaryB",
          "type": "uint256"
        },
        {
          "internalType": "uint256",
          "name": "contractA",
          "type": "uint256"
        },
        {
          "internalType": "uint256",
          "name": "contractB",
          "type": "uint256"
        },
        {
          "internalType": "uint256",
          "name": "myCollateral",
          "type": "uint256"
        },
        {
          "internalType": "uint256",
          "name": "myDebt",
          "type": "uint256"
        },
        {
          "internalType": "uint256",
          "name": "lastProfitAmount",
          "type": "uint256"
        },
        {
          "internalType": "bool",
          "name": "succeeded",
          "type": "bool"
        }
      ],
      "stateMutability": "view",
      "type": "function"
    },
    {
      "inputs": [],
      "name": "lastAttackSucceeded",
      "outputs": [
        {
          "internalType": "bool",
          "name": "",
          "type": "bool"
        }
      ],
      "stateMutability": "view",
      "type": "function"
    },
    {
      "inputs": [],
      "name": "lastProfit",
      "outputs": [
        {
          "internalType": "uint256",
          "name": "",
          "type": "uint256"
        }
      ],
      "stateMutability": "view",
      "type": "function"
    },
    {
      "inputs": [],
      "name": "lending",
      "outputs": [
        {
          "internalType": "contract ILending",
          "name": "",
          "type": "address"
        }
      ],
      "stateMutability": "view",
      "type": "function"
    },
    {
      "inputs": [],
      "name": "tokenA",
      "outputs": [
        {
          "internalType": "contract IERC20",
          "name": "",
          "type": "address"
        }
      ],
      "stateMutability": "view",
      "type": "function"
    },
    {
      "inputs": [],
      "name": "tokenB",
      "outputs": [
        {
          "internalType": "contract IERC20",
          "name": "",
          "type": "address"
        }
      ],
      "stateMutability": "view",
      "type": "function"
    }
  ],
  "bytecode": "0x6080346200011457601f6200192138819003918201601f19168301916001600160401b03831184841017620001195780849260e09460405283398101031262000114576200004d816200012f565b906200005c602082016200012f565b6200006a604083016200012f565b62000078606084016200012f565b9262000087608082016200012f565b92620000a460c06200009c60a085016200012f565b93016200012f565b9360018060a01b0380968180968180968160018060a01b03199d168d6000541617600055168b600154161760015516896002541617600255168760035416176003551685600454161760045516836005541617600555169060065416176006556040516117dc9081620001458239f35b600080fd5b634e487b7160e01b600052604160045260246000fd5b51906001600160a01b0382168203620001145756fe608080604052600436101561001357600080fd5b600090813560e01c90816303d28d1f146114de575080630535b6fe146114c05780630b8726be146114975780630e945d00146114795780630fc63d10146114525780631005efba146114345780631513f37114610e955780631865c57d14610bfe578063265f4c9514610b2f5780632af6a5c214610b1157806338af3eed14610ae857806345530d6d14610aca5780634871236a14610aa15780634f10edf614610a8357806353bd4d7514610a655780635f64b55b14610a3c578063794dfa5014610a13578063829c3c81146103de5780638d4443d8146103c057806395e97eee14610397578063a3f559f814610379578063a8b1bd2b1461035b578063b2074a2a1461033d578063b9debb591461031f578063d1dec79a14610255578063d687aab114610237578063d9f4ecbb14610219578063e229e525146101f65763fb27c8961461016057600080fd5b346101f357806003193601126101f3576101c0600954600a54600b54600c54600d54600e54600f5460105460115491601254936013549560145497601554996016549b60206040519e8f908152015260408d015260608c015260808b015260a08a015260c089015260e08801526101008701526101208601526101408501526101608401526101808301526101a0820152f35b80fd5b50346101f357806003193601126101f357602060ff600854166040519015158152f35b50346101f357806003193601126101f3576020600754604051908152f35b50346101f357806003193601126101f3576020600a54604051908152f35b50346101f35760203660031901126101f35760043561027581151561170f565b6040519080602083015260208252604082019082821067ffffffffffffffff8311176103095760408290526005548493906001600160a01b0316803b156103055783858094829463701195a160e11b84526102d881603f19933060448301611747565b0301925af180156102fa576102ea5750f35b6102f3906115c6565b6101f35780f35b6040513d84823e3d90fd5b8480fd5b634e487b7160e01b600052604160045260246000fd5b50346101f357806003193601126101f3576020600d54604051908152f35b50346101f357806003193601126101f3576020601454604051908152f35b50346101f357806003193601126101f3576020601154604051908152f35b50346101f357806003193601126101f3576020601654604051908152f35b50346101f357806003193601126101f3576004546040516001600160a01b039091168152602090f35b50346101f357806003193601126101f3576020600b54604051908152f35b50346101f35760206103ef366114fa565b9080939161040860018060a01b03600554163314611547565b8101031261088d5761041d8184933514611588565b6009819055815460025460405163095ea7b360e01b8082526001600160a01b03928316600483015260248201859052929091602091839160449183918991165af1801561097d576109f4575b50600254604051630310209160e01b8152600481018490529360209185916024918391906001600160a01b03165af192831561097d5784936109bf575b50600a839055600154600480546040519384526001600160a01b039081169184019190915260248301859052602091839160449183918991165af1801561097d576109a0575b5060045483906001600160a01b0316803b1561091b5781809160246040518094819363bad4a01f60e01b83528960048401525af180156102fa57610988575b505060025460405163371dbeaf60e21b81529290602090849060049082906001600160a01b03165afa92831561097d578493610947575b5061057a83670de0b6b3a76400009281600b55611614565b0490611d4c8083029083820414831517156109335782600c556127108104600d55600582028281046005148315171561091f5761271090046105bc818461165d565b90600e5580600f5561271082046010556105db8161271084041161166a565b60045486906001600160a01b0316803b1561091b5781809160246040518094819363317afabb60e21b83526127108a0460048401525af180156102fa57610903575b505085546040516370a0823160e01b815230600482015291906001600160a01b0316602083602481845afa92831561089a5788936108cf575b508160209161066a826106a49610156116c3565b60055460405163a9059cbb60e01b81526001600160a01b0390911660048201526024810192909252909384919082908b9082906044820190565b03925af19182156108c4576106c3926108a5575b5061271083046116b6565b938460125560018060a01b0386541693604051906370a0823160e01b8252306004830152602082602481895afa91821561089a578892610861575b506011918255606483029383850460641484151715610839576714d1120d7b1600008095046013556127108802958815968981046127101488171561084d57906107479161163d565b60145561271090819004808202918115918304141715610839579061076b9161163d565b6015556714d1120d7b15ffff1982019182116108275760648202918083046064149015171561082757500460165582600755600160ff196008541617600855156107b3578280f35b60065460405163a9059cbb60e01b81526001600160a01b03909116600482015260248101929092526020908290604490829086905af180156102fa576107f857808280f35b6108199060203d602011610820575b61081181836115da565b8101906115fc565b5038808280f35b503d610807565b634e487b7160e01b8752600452602486fd5b634e487b7160e01b89526004839052602489fd5b634e487b7160e01b8b52600485905260248bfd5b9091506020813d602011610892575b8161087d602093836115da565b8101031261088d575190386106fe565b600080fd5b3d9150610870565b6040513d8a823e3d90fd5b6108bd9060203d6020116108205761081181836115da565b50386106b8565b6040513d89823e3d90fd5b92506020833d6020116108fb575b816108ea602093836115da565b8101031261088d5791519181610656565b3d91506108dd565b61090c906115c6565b61091757853861061d565b8580fd5b5080fd5b634e487b7160e01b86526011600452602486fd5b634e487b7160e01b85526011600452602485fd5b9092506020813d602011610975575b81610963602093836115da565b8101031261088d57519161057a610562565b3d9150610956565b6040513d86823e3d90fd5b610991906115c6565b61099c57823861052b565b8280fd5b6109b89060203d6020116108205761081181836115da565b50386104ec565b9092506020813d6020116109ec575b816109db602093836115da565b8101031261088d57519160206104a6565b3d91506109ce565b610a0c9060203d6020116108205761081181836115da565b5038610469565b50346101f357806003193601126101f3576003546040516001600160a01b039091168152602090f35b50346101f357806003193601126101f3576001546040516001600160a01b039091168152602090f35b50346101f357806003193601126101f3576020600954604051908152f35b50346101f357806003193601126101f3576020601254604051908152f35b50346101f357806003193601126101f3576005546040516001600160a01b039091168152602090f35b50346101f357806003193601126101f3576020600c54604051908152f35b50346101f357806003193601126101f3576006546040516001600160a01b039091168152602090f35b50346101f357806003193601126101f3576020601054604051908152f35b50346101f357604036600319011261088d57602435600435610b5281151561170f565b808211610bc15760405191816020840152604083015260408252606082019082821067ffffffffffffffff8311176103095760408290526005548493906001600160a01b0316803b156103055783858094829463701195a160e11b84526102d881605f19933060648301611747565b60405162461bcd60e51b81526020600482015260156024820152741a5b9d985b1a590810881cddd85c08185b5bdd5b9d605a1b6044820152606490fd5b50346101f357806003193601126101f35760018060a01b039081815416918060065416604051926370a0823160e01b9485855282600486015260209360249685878981865afa96871561097d578497610e66575b5081600154169260405195828752600487015286868a81875afa958615610dc957899493929188918798610e34575b50604051958680928582523060048301525afa938415610dc9579087918695610e03575b50896040518095819382523060048301525afa91821561097d578492610dd4575b5060045416916040519263f0c1020d60e01b845230600485015286848a81845afa938415610dc9579087918695610d98575b5060405163ebf7b35160e01b8152306004820152998a9182905afa938415610d8c5793610d5b575b61010097506007549460ff600854169660405198895288015260408701526060860152608085015260a084015260c0830152151560e0820152f35b92508487813d8311610d85575b610d7281836115da565b8101031261088d57610100965192610d20565b503d610d68565b604051903d90823e3d90fd5b8281939296503d8311610dc2575b610db081836115da565b8101031261088d578690519338610cf8565b503d610da6565b6040513d87823e3d90fd5b9091508581813d8311610dfc575b610dec81836115da565b8101031261088d57519038610cc6565b503d610de2565b8281939296503d8311610e2d575b610e1b81836115da565b8101031261088d578690519338610ca5565b503d610e11565b9550965084813d8311610e5f575b610e4c81836115da565b8101031261088d57868994519638610c81565b503d610e42565b9096508581813d8311610e8e575b610e7e81836115da565b8101031261088d57519538610c52565b503d610e74565b50346101f357806040610ea7366114fa565b90809391610ec060018060a01b03600554163314611547565b8101031261143057610ed9816020840135933514611588565b825460025460405163095ea7b360e01b8082526001600160a01b0392831660048301526024820185905294929091602091839160449183918a91165af18015610dc957611411575b50600254604051630310209160e01b8152600481018490529460209186916024918391906001600160a01b03165af1938415610dc95785946113dd575b50600154600480546040518681526001600160a01b0391821692810192909252602482018790529091602091839160449183918b91165af180156113a0576113be575b5060045485906001600160a01b0316803b1561091b57819060246040518094819363bad4a01f60e01b83528a60048401525af180156113a0576113ab575b5060025460405163371dbeaf60e21b815290602090829060049082906001600160a01b03165afa9081156113a057869161136e575b50670de0b6b3a76400006110288287611614565b0493611d4c9283860293868504148615171561135a576005850290858204600514861517156113465761105f61271083048761165d565b9261106f8461271088041161166a565b6004548a906001600160a01b0316803b1561091b578161271060248a83604051958694859363317afabb60e21b85520460048401525af180156102fa5761132e575b505081151580611317575b6112b3575b505087546040516370a0823160e01b815230600482015291906001600160a01b0316602083602481845afa80156112a85784938b91611270575b509260209161110f826111499610156116c3565b60055460405163a9059cbb60e01b81526001600160a01b0390911660048201526024810192909252909384919082908d9082906044820190565b03925af19182156112655761271092611246575b5061116a838387046116b6565b9786600955600a5583600b5586600c55818504600d5504600e55600f55612710820460105560018060a01b0386541693604051906370a0823160e01b8252306004830152602082602481895afa91821561089a578892611212575b50601191825586601255606483029383850460641484151715610839576714d1120d7b1600008095046013556127108802958815968981046127101488171561084d57906107479161163d565b9091506020813d60201161123e575b8161122e602093836115da565b8101031261088d575190386111c5565b3d9150611221565b61125e9060203d6020116108205761081181836115da565b503861115d565b6040513d8b823e3d90fd5b9350506020833d6020116112a0575b8161128c602093836115da565b8101031261088d57915183929060206110fb565b3d915061127f565b6040513d8c823e3d90fd5b89546003546040519283526001600160a01b03908116600484015260248301939093529091602091839160449183918e91165af18015611265576112f8575b806110c1565b6113109060203d6020116108205761081181836115da565b50386112f2565b506113268461271088046116b6565b8211156110bc565b611337906115c6565b6113425789386110b1565b8980fd5b634e487b7160e01b89526011600452602489fd5b634e487b7160e01b88526011600452602488fd5b90506020813d602011611398575b81611389602093836115da565b8101031261088d575138611014565b3d915061137c565b6040513d88823e3d90fd5b6113b7909591956115c6565b9338610fdf565b6113d69060203d6020116108205761081181836115da565b5038610fa1565b9093506020813d602011611409575b816113f9602093836115da565b8101031261030557519238610f5e565b3d91506113ec565b6114299060203d6020116108205761081181836115da565b5038610f21565b5050fd5b50346101f357806003193601126101f3576020601554604051908152f35b50346101f357806003193601126101f357546040516001600160a01b039091168152602090f35b50346101f357806003193601126101f3576020601354604051908152f35b50346101f357806003193601126101f3576002546040516001600160a01b039091168152602090f35b50346101f357806003193601126101f3576020600f54604051908152f35b90503461091b578160031936011261091b57602090600e548152f35b604060031982011261088d576004359160243567ffffffffffffffff9283821161088d578060238301121561088d57816004013593841161088d576024848301011161088d576024019190565b1561154e57565b60405162461bcd60e51b815260206004820152601260248201527137b7363c90333630b9b4283937bb34b232b960711b6044820152606490fd5b1561158f57565b60405162461bcd60e51b815260206004820152600f60248201526e0c2dadeeadce840dad2e6dac2e8c6d608b1b6044820152606490fd5b67ffffffffffffffff811161030957604052565b90601f8019910116810190811067ffffffffffffffff82111761030957604052565b9081602091031261088d5751801515810361088d5790565b8181029291811591840414171561162757565b634e487b7160e01b600052601160045260246000fd5b8115611647570490565b634e487b7160e01b600052601260045260246000fd5b9190820180921161162757565b1561167157565b60405162461bcd60e51b815260206004820152601e60248201527f626f72726f77203c3d2072657061796d656e742c206e6f2070726f66697400006044820152606490fd5b9190820391821161162757565b156116ca57565b60405162461bcd60e51b815260206004820152601a60248201527f696e73756666696369656e7420666f722072657061796d656e740000000000006044820152606490fd5b1561171657565b60405162461bcd60e51b81526020600482015260096024820152683d32b937903637b0b760b91b6044820152606490fd5b9193929060018060a01b0316825260209360208301526060604083015280519081606084015260005b82811061179257505060809293506000838284010152601f8019910116010190565b81810186015184820160800152850161177056fea26469706673582212204105f2543c193fd9a4098768b1ec11941df2bc64e47fed7e8a9089a07aab599164736f6c63430008180033",
  "linkReferences": {},
  "deployedLinkReferences": {}
}