{
  "_format": "hh-sol-artifact-1",
  "contractName": "FlashLoanProvider",
  "sourceName": "contracts/FlashLoanProvider.sol",
  "abi": [
    {
      "inputs": [
        {
          "internalType": "address",
          "name": "_token",
          "type": "address"
        }
      ],
      "stateMutability": "nonpayable",
      "type": "constructor"
    },
    {
      "inputs": [],
      "name": "BP_DIV",
      "outputs": [
        {
          "internalType": "uint256",
          "name": "",
          "type": "uint256"
        }
      ],
      "stateMutability": "view",
      "type": "function"
    },
    {
      "inputs": [],
      "name": "feeBP",
      "outputs": [
        {
          "internalType": "uint256",
          "name": "",
          "type": "uint256"
        }
      ],
      "stateMutability": "view",
      "type": "function"
    },
    {
      "inputs": [
        {
          "internalType": "address",
          "name": "receiver",
          "type": "address"
        },
        {
          "internalType": "uint256",
          "name": "amount",
          "type": "uint256"
        },
        {
          "internalType": "bytes",
          "name": "params",
          "type": "bytes"
        }
      ],
      "name": "flashLoan",
      "outputs": [],
      "stateMutability": "nonpayable",
      "type": "function"
    },
    {
      "inputs": [
        {
          "internalType": "uint256",
          "name": "amount",
          "type": "uint256"
        }
      ],
      "name": "fund",
      "outputs": [],
      "stateMutability": "nonpayable",
      "type": "function"
    },
    {
      "inputs": [],
      "name": "token",
      "outputs": [
        {
          "internalType": "contract IERC20",
          "name": "",
          "type": "address"
        }
      ],
      "stateMutability": "view",
      "type": "function"
    }
  ],
  "bytecode": "0x60803461007957601f6105e838819003918201601f19168301916001600160401b0383118484101761007e5780849260209460405283398101031261007957516001600160a01b03811690819003610079576005600155600080546001600160a01b03191691909117905560405161055390816100958239f35b600080fd5b634e487b7160e01b600052604160045260246000fdfe608060408181526004918236101561001657600080fd5b600092833560e01c918263017f6fae1461048e5750838263ca1d209d1461040957508163e0232b42146100a457508063f756c10a146100885763fc0c546a1461005e57600080fd5b34610084578160031936011261008457905490516001600160a01b039091168152602090f35b5080fd5b5034610084578160031936011261008457602090516127108152f35b919050346102f65760603660031901126102f6576001600160a01b03908235828116908190036104055760249182359360449485359167ffffffffffffffff9283811161040157366023820112156104015780890135938085116103fd57368886840101116103fd5783156103ce579082918b959493865416948751986370a0823160e01b96878b528d30908c01528a8c60209c8d9181855afa998a1561035a579961039b575b50868910610365578b8f918f8f85918f938f908d889251978896879563a9059cbb60e01b87528601528401525af191821561035a579161032d575b50156102fa5790818e923b156102f65786838f8f97908f95808f97606494828a519d8e9b8c9a8b9863829c3c8160e01b8a528901528488015286015201848401378181018301849052601f01601f191681010301925af180156102ec576102c7575b505060015480830290838204036102b5579061020a61271088930480946104fa565b508a541692878651809581938252308d8301525afa9182156102ab578992610275575b5061023891926104fa565b11610241578580f35b5162461bcd60e51b815293840152601390830152721c995c185e480ac8199959481b9bdd081b595d606a1b90820152606490fd5b91508482813d83116102a4575b61028c81836104aa565b8101031261029f5761023891519161022d565b600080fd5b503d610282565b84513d8b823e3d90fd5b634e487b7160e01b8b5260118a52878bfd5b819b929b116102da5785529838806101e8565b634e487b7160e01b825260418a528782fd5b87513d8e823e3d90fd5b8280fd5b885162461bcd60e51b8152808e018b9052600f818d01526e1d1c985b9cd9995c8819985a5b1959608a1b818e0152606490fd5b61034d91508b3d8d11610353575b61034581836104aa565b8101906104e2565b38610186565b503d61033b565b8b51903d90823e3d90fd5b50885162461bcd60e51b8152808e018b90526011818d0152701a5b9cdd59999a58da595b9d081c1bdbdb607a1b818e0152606490fd5b9098508a81813d83116103c7575b6103b381836104aa565b810103126103c35751973861014b565b8e80fd5b503d6103a9565b855162461bcd60e51b81526020818c0152600b818a01526a1e995c9bc8185b5bdd5b9d60aa1b818b0152606490fd5b8a80fd5b8980fd5b8480fd5b9291503461048a57602036600319011261048a57825482516323b872dd60e01b8152338184015230602482015291356044830152909260209184916064918391906001600160a01b03165af19081156104815750610465575080f35b61047d9060203d6020116103535761034581836104aa565b5080f35b513d84823e3d90fd5b5050fd5b8490346100845781600319360112610084576020906001548152f35b90601f8019910116810190811067ffffffffffffffff8211176104cc57604052565b634e487b7160e01b600052604160045260246000fd5b9081602091031261029f5751801515810361029f5790565b9190820180921161050757565b634e487b7160e01b600052601160045260246000fdfea264697066735822122048a976234412664b1243de84d1d8ba60c6e8ceb86394aa1fb37458780657be2c64736f6c63430008180033",
  "linkReferences": {},
  "deployedLinkReferences": {}
}