{
  "_format": "hh-sol-artifact-1",
  "contractName": "FlashLoanProvider",
  "sourceName": "contracts/FlashLoanProvider.sol",
  "abi": [
    {
      "inputs": [
        {
          "internalType": "address",
          "name": "_token",
          "type": "address"
        }
      ],
      "stateMutability": "nonpayable",
      "type": "constructor"
    },
    {
      "inputs": [],
      "name": "BP_DIV",
      "outputs": [
        {
          "internalType": "uint256",
          "name": "",
          "type": "uint256"
        }
      ],
      "stateMutability": "view",
      "type": "function"
    },
    {
      "inputs": [],
      "name": "feeBP",
      "outputs": [
        {
          "internalType": "uint256",
          "name": "",
          "type": "uint256"
        }
      ],
      "stateMutability": "view",
      "type": "function"
    },
    {
      "inputs": [
        {
          "internalType": "address",
          "name": "receiver",
          "type": "address"
        },
        {
          "internalType": "uint256",
          "name": "amount",
          "type": "uint256"
        },
        {
          "internalType": "bytes",
          "name": "params",
          "type": "bytes"
        }
      ],
      "name": "flashLoan",
      "outputs": [],
      "stateMutability": "nonpayable",
      "type": "function"
    },
    {
      "inputs": [
        {
          "internalType": "uint256",
          "name": "amount",
          "type": "uint256"
        }
      ],
      "name": "fund",
      "outputs": [],
      "stateMutability": "nonpayable",
      "type": "function"
    },
    {
      "inputs": [],
      "name": "token",
      "outputs": [
        {
          "internalType": "contract IERC20",
          "name": "",
          "type": "address"
        }
      ],
      "stateMutability": "view",
      "type": "function"
    }
  ],
  "bytecode": "0x6080604052600560015534801561001557600080fd5b50604051610d7a380380610d7a833981810160405281019061003791906100e0565b806000806101000a81548173ffffffffffffffffffffffffffffffffffffffff021916908373ffffffffffffffffffffffffffffffffffffffff1602179055505061010d565b600080fd5b600073ffffffffffffffffffffffffffffffffffffffff82169050919050565b60006100ad82610082565b9050919050565b6100bd816100a2565b81146100c857600080fd5b50565b6000815190506100da816100b4565b92915050565b6000602082840312156100f6576100f561007d565b5b6000610104848285016100cb565b91505092915050565b610c5e8061011c6000396000f3fe608060405234801561001057600080fd5b50600436106100575760003560e01c8063017f6fae1461005c578063ca1d209d1461007a578063e0232b4214610096578063f756c10a146100b2578063fc0c546a146100d0575b600080fd5b6100646100ee565b6040516100719190610572565b60405180910390f35b610094600480360381019061008f91906105c3565b6100f4565b005b6100b060048036038101906100ab91906106b3565b610198565b005b6100ba61052f565b6040516100c79190610572565b60405180910390f35b6100d8610535565b6040516100e59190610786565b60405180910390f35b60015481565b60008054906101000a900473ffffffffffffffffffffffffffffffffffffffff1673ffffffffffffffffffffffffffffffffffffffff166323b872dd3330846040518463ffffffff1660e01b8152600401610151939291906107b0565b6020604051808303816000875af1158015610170573d6000803e3d6000fd5b505050506040513d601f19601f82011682018060405250810190610194919061081f565b5050565b600083116101db576040517f08c379a00000000000000000000000000000000000000000000000000000000081526004016101d2906108a9565b60405180910390fd5b60008060009054906101000a900473ffffffffffffffffffffffffffffffffffffffff1673ffffffffffffffffffffffffffffffffffffffff166370a08231306040518263ffffffff1660e01b815260040161023791906108c9565b602060405180830381865afa158015610254573d6000803e3d6000fd5b505050506040513d601f19601f8201168201806040525081019061027891906108f9565b9050838110156102bd576040517f08c379a00000000000000000000000000000000000000000000000000000000081526004016102b490610972565b60405180910390fd5b60008054906101000a900473ffffffffffffffffffffffffffffffffffffffff1673ffffffffffffffffffffffffffffffffffffffff1663a9059cbb86866040518363ffffffff1660e01b8152600401610318929190610992565b6020604051808303816000875af1158015610337573d6000803e3d6000fd5b505050506040513d601f19601f8201168201806040525081019061035b919061081f565b61039a576040517f08c379a000000000000000000000000000000000000000000000000000000000815260040161039190610a07565b60405180910390fd5b8473ffffffffffffffffffffffffffffffffffffffff1663829c3c818585856040518463ffffffff1660e01b81526004016103d793929190610a85565b600060405180830381600087803b1580156103f157600080fd5b505af1158015610405573d6000803e3d6000fd5b5050505060006127106001548661041c9190610ae6565b6104269190610b57565b9050600081866104369190610b88565b905060008060009054906101000a900473ffffffffffffffffffffffffffffffffffffffff1673ffffffffffffffffffffffffffffffffffffffff166370a08231306040518263ffffffff1660e01b815260040161049491906108c9565b602060405180830381865afa1580156104b1573d6000803e3d6000fd5b505050506040513d601f19601f820116820180604052508101906104d591906108f9565b905082846104e39190610b88565b811015610525576040517f08c379a000000000000000000000000000000000000000000000000000000000815260040161051c90610c08565b60405180910390fd5b5050505050505050565b61271081565b60008054906101000a900473ffffffffffffffffffffffffffffffffffffffff1681565b6000819050919050565b61056c81610559565b82525050565b60006020820190506105876000830184610563565b92915050565b600080fd5b600080fd5b6105a081610559565b81146105ab57600080fd5b50565b6000813590506105bd81610597565b92915050565b6000602082840312156105d9576105d861058d565b5b60006105e7848285016105ae565b91505092915050565b600073ffffffffffffffffffffffffffffffffffffffff82169050919050565b600061061b826105f0565b9050919050565b61062b81610610565b811461063657600080fd5b50565b60008135905061064881610622565b92915050565b600080fd5b600080fd5b600080fd5b60008083601f8401126106735761067261064e565b5b8235905067ffffffffffffffff8111156106905761068f610653565b5b6020830191508360018202830111156106ac576106ab610658565b5b9250929050565b600080600080606085870312156106cd576106cc61058d565b5b60006106db87828801610639565b94505060206106ec878288016105ae565b935050604085013567ffffffffffffffff81111561070d5761070c610592565b5b6107198782880161065d565b925092505092959194509250565b6000819050919050565b600061074c610747610742846105f0565b610727565b6105f0565b9050919050565b600061075e82610731565b9050919050565b600061077082610753565b9050919050565b61078081610765565b82525050565b600060208201905061079b6000830184610777565b92915050565b6107aa81610610565b82525050565b60006060820190506107c560008301866107a1565b6107d260208301856107a1565b6107df6040830184610563565b949350505050565b60008115159050919050565b6107fc816107e7565b811461080757600080fd5b50565b600081519050610819816107f3565b92915050565b6000602082840312156108355761083461058d565b5b60006108438482850161080a565b91505092915050565b600082825260208201905092915050565b7f7a65726f20616d6f756e74000000000000000000000000000000000000000000600082015250565b6000610893600b8361084c565b915061089e8261085d565b602082019050919050565b600060208201905081810360008301526108c281610886565b9050919050565b60006020820190506108de60008301846107a1565b92915050565b6000815190506108f381610597565b92915050565b60006020828403121561090f5761090e61058d565b5b600061091d848285016108e4565b91505092915050565b7f696e73756666696369656e7420706f6f6c000000000000000000000000000000600082015250565b600061095c60118361084c565b915061096782610926565b602082019050919050565b6000602082019050818103600083015261098b8161094f565b9050919050565b60006040820190506109a760008301856107a1565b6109b46020830184610563565b9392505050565b7f7472616e73666572206661696c65640000000000000000000000000000000000600082015250565b60006109f1600f8361084c565b91506109fc826109bb565b602082019050919050565b60006020820190508181036000830152610a20816109e4565b9050919050565b600082825260208201905092915050565b82818337600083830152505050565b6000601f19601f8301169050919050565b6000610a648385610a27565b9350610a71838584610a38565b610a7a83610a47565b840190509392505050565b6000604082019050610a9a6000830186610563565b8181036020830152610aad818486610a58565b9050949350505050565b7f4e487b7100000000000000000000000000000000000000000000000000000000600052601160045260246000fd5b6000610af182610559565b9150610afc83610559565b9250828202610b0a81610559565b91508282048414831517610b2157610b20610ab7565b5b5092915050565b7f4e487b7100000000000000000000000000000000000000000000000000000000600052601260045260246000fd5b6000610b6282610559565b9150610b6d83610559565b925082610b7d57610b7c610b28565b5b828204905092915050565b6000610b9382610559565b9150610b9e83610559565b9250828201905080821115610bb657610bb5610ab7565b5b92915050565b7f7265706179202b20666565206e6f74206d657400000000000000000000000000600082015250565b6000610bf260138361084c565b9150610bfd82610bbc565b602082019050919050565b60006020820190508181036000830152610c2181610be5565b905091905056fea264697066735822122047a3d3bf03ce158a02c49e51e7d75a59470fce463858034e4fd4a1ddff05852864736f6c63430008180033",
  "linkReferences": {},
  "deployedLinkReferences": {}
}