{
  "_format": "hh-sol-artifact-1",
  "contractName": "MultiOracleAggregator",
  "sourceName": "contracts/MultiOracleAggregator.sol",
  "abi": [
    {
      "inputs": [],
      "stateMutability": "nonpayable",
      "type": "constructor"
    },
    {
      "anonymous": false,
      "inputs": [
        {
          "indexed": false,
          "internalType": "bool",
          "name": "paused",
          "type": "bool"
        }
      ],
      "name": "EmergencyPause",
      "type": "event"
    },
    {
      "anonymous": false,
      "inputs": [
        {
          "indexed": true,
          "internalType": "address",
          "name": "oracle",
          "type": "address"
        },
        {
          "indexed": false,
          "internalType": "uint256",
          "name": "weight",
          "type": "uint256"
        },
        {
          "indexed": false,
          "internalType": "string",
          "name": "name",
          "type": "string"
        }
      ],
      "name": "OracleAdded",
      "type": "event"
    },
    {
      "anonymous": false,
      "inputs": [
        {
          "indexed": true,
          "internalType": "address",
          "name": "oracle",
          "type": "address"
        },
        {
          "indexed": false,
          "internalType": "uint256",
          "name": "price",
          "type": "uint256"
        },
        {
          "indexed": false,
          "internalType": "uint256",
          "name": "median",
          "type": "uint256"
        },
        {
          "indexed": false,
          "internalType": "uint256",
          "name": "deviation",
          "type": "uint256"
        }
      ],
      "name": "OracleDeviation",
      "type": "event"
    },
    {
      "anonymous": false,
      "inputs": [
        {
          "indexed": true,
          "internalType": "address",
          "name": "oracle",
          "type": "address"
        }
      ],
      "name": "OracleRemoved",
      "type": "event"
    },
    {
      "anonymous": false,
      "inputs": [
        {
          "indexed": false,
          "internalType": "uint256",
          "name": "aggregatedPrice",
          "type": "uint256"
        },
        {
          "indexed": false,
          "internalType": "uint256",
          "name": "oracleCount",
          "type": "uint256"
        }
      ],
      "name": "PriceAggregated",
      "type": "event"
    },
    {
      "inputs": [],
      "name": "MAX_DEVIATION_DEFAULT",
      "outputs": [
        {
          "internalType": "uint256",
          "name": "",
          "type": "uint256"
        }
      ],
      "stateMutability": "view",
      "type": "function"
    },
    {
      "inputs": [],
      "name": "MIN_ORACLES_REQUIRED",
      "outputs": [
        {
          "internalType": "uint256",
          "name": "",
          "type": "uint256"
        }
      ],
      "stateMutability": "view",
      "type": "function"
    },
    {
      "inputs": [
        {
          "internalType": "uint256",
          "name": "index",
          "type": "uint256"
        }
      ],
      "name": "_getOraclePrice",
      "outputs": [
        {
          "internalType": "uint256",
          "name": "",
          "type": "uint256"
        }
      ],
      "stateMutability": "view",
      "type": "function"
    },
    {
      "inputs": [
        {
          "internalType": "address",
          "name": "_oracle",
          "type": "address"
        },
        {
          "internalType": "uint256",
          "name": "_weight",
          "type": "uint256"
        },
        {
          "internalType": "bool",
          "name": "_isTWAP",
          "type": "bool"
        },
        {
          "internalType": "uint256",
          "name": "_maxDeviation",
          "type": "uint256"
        },
        {
          "internalType": "string",
          "name": "_name",
          "type": "string"
        }
      ],
      "name": "addOracle",
      "outputs": [],
      "stateMutability": "nonpayable",
      "type": "function"
    },
    {
      "inputs": [],
      "name": "emergencyPause",
      "outputs": [],
      "stateMutability": "nonpayable",
      "type": "function"
    },
    {
      "inputs": [],
      "name": "emergencyPaused",
      "outputs": [
        {
          "internalType": "bool",
          "name": "",
          "type": "bool"
        }
      ],
      "stateMutability": "view",
      "type": "function"
    },
    {
      "inputs": [],
      "name": "emergencyUnpause",
      "outputs": [],
      "stateMutability": "nonpayable",
      "type": "function"
    },
    {
      "inputs": [],
      "name": "getActiveOracleCount",
      "outputs": [
        {
          "internalType": "uint256",
          "name": "",
          "type": "uint256"
        }
      ],
      "stateMutability": "view",
      "type": "function"
    },
    {
      "inputs": [],
      "name": "getAggregatedPrice",
      "outputs": [
        {
          "internalType": "uint256",
          "name": "",
          "type": "uint256"
        }
      ],
      "stateMutability": "view",
      "type": "function"
    },
    {
      "inputs": [],
      "name": "getAllPrices",
      "outputs": [
        {
          "internalType": "uint256[]",
          "name": "prices",
          "type": "uint256[]"
        },
        {
          "internalType": "string[]",
          "name": "names",
          "type": "string[]"
        },
        {
          "internalType": "bool[]",
          "name": "isValid",
          "type": "bool[]"
        }
      ],
      "stateMutability": "view",
      "type": "function"
    },
    {
      "inputs": [],
      "name": "getOracleCount",
      "outputs": [
        {
          "internalType": "uint256",
          "name": "",
          "type": "uint256"
        }
      ],
      "stateMutability": "view",
      "type": "function"
    },
    {
      "inputs": [
        {
          "internalType": "uint256",
          "name": "index",
          "type": "uint256"
        }
      ],
      "name": "getOracleInfo",
      "outputs": [
        {
          "internalType": "address",
          "name": "oracle",
          "type": "address"
        },
        {
          "internalType": "uint256",
          "name": "weight",
          "type": "uint256"
        },
        {
          "internalType": "bool",
          "name": "isActive",
          "type": "bool"
        },
        {
          "internalType": "bool",
          "name": "isTWAP",
          "type": "bool"
        },
        {
          "internalType": "uint256",
          "name": "maxDeviation",
          "type": "uint256"
        },
        {
          "internalType": "string",
          "name": "name",
          "type": "string"
        }
      ],
      "stateMutability": "view",
      "type": "function"
    },
    {
      "inputs": [
        {
          "internalType": "uint256",
          "name": "",
          "type": "uint256"
        },
        {
          "internalType": "uint256",
          "name": "minOracleCount",
          "type": "uint256"
        }
      ],
      "name": "getSecurePrice",
      "outputs": [
        {
          "internalType": "uint256",
          "name": "",
          "type": "uint256"
        }
      ],
      "stateMutability": "view",
      "type": "function"
    },
    {
      "inputs": [
        {
          "internalType": "uint256",
          "name": "",
          "type": "uint256"
        }
      ],
      "name": "oracles",
      "outputs": [
        {
          "internalType": "address",
          "name": "oracle",
          "type": "address"
        },
        {
          "internalType": "uint256",
          "name": "weight",
          "type": "uint256"
        },
        {
          "internalType": "bool",
          "name": "isActive",
          "type": "bool"
        },
        {
          "internalType": "bool",
          "name": "isTWAP",
          "type": "bool"
        },
        {
          "internalType": "uint256",
          "name": "maxDeviation",
          "type": "uint256"
        },
        {
          "internalType": "string",
          "name": "name",
          "type": "string"
        }
      ],
      "stateMutability": "view",
      "type": "function"
    },
    {
      "inputs": [],
      "name": "owner",
      "outputs": [
        {
          "internalType": "address",
          "name": "",
          "type": "address"
        }
      ],
      "stateMutability": "view",
      "type": "function"
    },
    {
      "inputs": [
        {
          "internalType": "uint256",
          "name": "index",
          "type": "uint256"
        }
      ],
      "name": "removeOracle",
      "outputs": [],
      "stateMutability": "nonpayable",
      "type": "function"
    },
    {
      "inputs": [
        {
          "internalType": "uint256",
          "name": "index",
          "type": "uint256"
        },
        {
          "internalType": "bool",
          "name": "active",
          "type": "bool"
        }
      ],
      "name": "toggleOracle",
      "outputs": [],
      "stateMutability": "nonpayable",
      "type": "function"
    }
  ],
  "bytecode": "0x6080806040523461002857600180546001600160a81b03191633179055611818908161002e8239f35b600080fdfe6080604052600436101561001257600080fd5b60003560e01c80630b216ac3146110935780631fc6b0e41461107757806327c830a9146110515780632ec91e8c14610d7b5780633f4e425114610d5d578063445df9d614610ae25780634a4e3bd514610a8157806350dc629c14610a6457806351858e27146109fc5780635b69a7d8146109915780637eaec7bd146105b65780637ed19bfa1461055b57806380935dbf1461033a57806386ce11d8146103145780638da5cb5b146102eb5780639276ade5146102365763f2255509146100d757600080fd5b346101625760403660031901126101625760026024358181106101f15760008054815b8181106101c05750501061017b57604051630bb247a360e21b8152602081600481305afa801561016f57600090610137575b602090604051908152f35b506020813d602011610167575b81610151602093836111d7565b81010312610162576020905161012c565b600080fd5b3d9150610144565b6040513d6000823e3d90fd5b60405162461bcd60e51b815260206004820152601b60248201527f496e73756666696369656e7420616374697665206f7261636c657300000000006044820152606490fd5b60ff856101cc83611133565b500154166101dd575b6001016100fa565b916101e96001916113c4565b9290506101d5565b60405162461bcd60e51b815260206004820152601860248201527f4d696e206f7261636c6520636f756e7420746f6f206c6f7700000000000000006044820152606490fd5b346101625760203660031901126101625761025f60043561025a6000548210611314565b611133565b506040519061026d826111bb565b6102e760018060a01b039283835416815260018301549260208201938452600281015490604083019560ff83161515875260ff606085019360081c16151583526102c5600460038401549360808701948552016111f9565b938460a08201525116945195511515915115159051916040519687968761129e565b0390f35b34610162576000366003190112610162576001546040516001600160a01b039091168152602090f35b3461016257602036600319011261016257602061033260043561154d565b604051908152f35b346101625760203660031901126101625760043560018060a01b03600181610367829383541633146112db565b6103746000548510611314565b8061037e85611133565b50541693915b61046b575b505060005480156104555760001901906103a282611133565b61043f57806000600492556000838201556000600282015560006003820155016103cc8154611181565b806103ff575b5050506000557f9c8e7d83025bef8a04c664b2f753f64b8814bdb7e27291d7e50935f18cc3c712600080a2005b600092601f8211600114610419575050555b8280806103d2565b91610438849293828452601f60208520950160051c8501908501611400565b5555610411565b634e487b7160e01b600052600060045260246000fd5b634e487b7160e01b600052603160045260246000fd5b600054600019810190811161054057821015610556578282018083116105405761049490611133565b509161049f81611133565b91909161043f57838286958694036104bb575b50500191610384565b60048083876105399554166bffffffffffffffffffffffff60a01b8554161784558681015487850155610527600280860190830160ff9061050b82825416849060ff801983541691151516179055565b5460081c1661ff00825491151560081b169061ff001916179055565b60038082015490850155019101611469565b86806104b2565b634e487b7160e01b600052601160045260246000fd5b610389565b346101625760003660031901126101625760008054815b81811061058457602083604051908152f35b60ff600261059183611133565b500154166105a2575b600101610572565b916105ae6001916113c4565b92905061059a565b346101625760a0366003190112610162576004356001600160a01b03811681036101625760443590811515809203610162576084359060643567ffffffffffffffff8311610162573660238401121561016257826004013567ffffffffffffffff81116108b65760405193610635601f8301601f1916602001866111d7565b81855236602483830101116101625781600092602460209301838801378501015261066b60018060a01b036001541633146112db565b6001600160a01b0382161561095357602435151580610945575b1561090f5761138881116108d157806108cc57506103e85b604051936106aa856111bb565b60018060a01b038316855260208501602435815260408601926001845260608701928352608087019081528560a0880152600054680100000000000000008110156108b6578060016106ff9201600055611133565b92909261043f5760a09460049461076892600180891b038b51166bffffffffffffffffffffffff891b8754161786555160018601556107516002860192511515839060ff801983541691151516179055565b51815461ff00191690151560081b61ff0016179055565b5160038201550193015192835167ffffffffffffffff81116108b657610798816107928454611181565b84611417565b6020601f821160011461082857816108189493926107f0927f58af8cf4187fc2240aa47be76fb426fd2e6881e7dcab62ec2de04b6e5464fa39979860009261081d575b50508160011b916000199060031b1c19161790565b90555b60405191829160243583526040602084015260018060a01b03169460408301906110f3565b0390a2005b0151905088806107db565b601f198216958360005260206000209660005b81811061089e57509660019284926108189796957f58af8cf4187fc2240aa47be76fb426fd2e6881e7dcab62ec2de04b6e5464fa39999a10610885575b505050811b0190556107f3565b015160001960f88460031b161c19169055878080610878565b8383015189556001909801976020938401930161083b565b634e487b7160e01b600052604160045260246000fd5b61069d565b60405162461bcd60e51b815260206004820152601660248201527509ac2f040c8caecd2c2e8d2dedc40e8dede40d0d2ced60531b6044820152606490fd5b60405162461bcd60e51b815260206004820152600e60248201526d125b9d985b1a59081dd95a59da1d60921b6044820152606490fd5b506127106024351115610685565b60405162461bcd60e51b8152602060048201526016602482015275496e76616c6964206f7261636c65206164647265737360501b6044820152606490fd5b3461016257602036600319011261016257600435600054811015610162576109b890611133565b5060018060a01b03815416906102e76001820154916002810154906109e46004600383015492016111f9565b9160405195869560ff808460081c169316918761129e565b3461016257600036600319011261016257600154610a24336001600160a01b038316146112db565b60ff60a01b1916600160a01b1760019081556040519081527fb80d1ae5628c2af91424c54c87acfd15016be4bebeef0425b328238702f3483190602090a1005b346101625760003660031901126101625760206040516103e88152f35b3461016257600036600319011261016257600154610aa9336001600160a01b038316146112db565b60ff60a01b1916600155604051600081527fb80d1ae5628c2af91424c54c87acfd15016be4bebeef0425b328238702f3483190602090a1005b3461016257600036600319011261016257600054610aff81611368565b610b0882611350565b91610b1660405193846111d7565b808352610b2281611350565b601f1993602091850160005b818110610d4e575050610b4083611350565b610b4d60405191826111d7565b838152610b5984611350565b9386848301950136863760005b818110610c4b57505060405195869560608701606088528151809152856080890192019060005b818110610c34575050508681038588015283519081815285810186808460051b8401019601936000925b848410610c0057505050508684036040880152505051808252908201929160005b828110610be757505050500390f35b8351151585528695509381019392810192600101610bd8565b91939596819395999a5088610c2082600194868495030188528c516110f3565b9a0194019401918a99989695939491610bb7565b825184528a99509287019291870191600101610b8d565b610c656004610c5e839995969899611133565b50016111f9565b610c6f828861139a565b52610c7a818761139a565b5060ff6002610c8883611133565b5001541615610d32576040516310d9c23b60e31b815260048101829052908582602481305afa80600091610d02575b60019350610ce657506000610ccc828661139a565b526000610cd9828761139a565b525b019594929195610b66565b610cf0828661139a565b5281610cfc828761139a565b52610cdb565b90508683813d8311610d2b575b610d1981836111d7565b81010312610162576001925190610cb7565b503d610d0f565b806000610d416001938661139a565b526000610cfc828761139a565b60608382018501528301610b2e565b34610162576000366003190112610162576020600054604051908152f35b346101625760003660031901126101625760ff60019060ff60015460a01c1661101c57600054610daa81611368565b91610db482611368565b916000918560005b838110610f56575050505060028110610f1157610dd98184611667565b9060009260009460009360005b848110610e8457878760028810610e40578115610e0957602091610332916113e0565b60405162461bcd60e51b815260206004820152600f60248201526e4e6f2076616c69642070726963657360881b6044820152606490fd5b606460405162461bcd60e51b815260206004820152602060248201527f546f6f206d616e79206f75746c696572207072696365732064657465637465646044820152fd5b80610e9a83610e948c948761139a565b5161179b565b6003610ea583611133565b5001541015610eb5575b01610de6565b9597969050610ec4868461139a565b5190610ed0878661139a565b519182810292818404149015171561054057610f05610ef38b93610f0b936113d3565b98610efe898861139a565b51906113d3565b986113c4565b95610eaf565b60405162461bcd60e51b815260206004820152601b60248201527f496e73756666696369656e74206f7261636c6520736f757263657300000000006044820152606490fd5b826002610f6283611133565b50015416610f73575b018690610dbc565b6040516310d9c23b60e31b81526004810182905260208082602481305afa918291600093610fe9575b5050610fa85750610f6b565b80610fb4575b50610f6b565b94610fe29195610fc4828a61139a565b5282610fcf87611133565b500154610fdc828961139a565b526113c4565b9388610fae565b819550809293503d8311611015575b61100281836111d7565b8101031261016257889251908a80610f9c565b503d610ff8565b60405162461bcd60e51b815260206004820152600d60248201526c14de5cdd195b481c185d5cd959609a1b6044820152606490fd5b3461016257600036600319011261016257602060ff60015460a01c166040519015158152f35b3461016257600036600319011261016257602060405160028152f35b346101625760403660031901126101625760043560243580151581036101625760026110de6110f1936110d160018060a01b036001541633146112db565b61025a6000548210611314565b50019060ff801983541691151516179055565b005b919082519283825260005b84811061111f575050826000602080949584010152601f8019910116010190565b6020818301810151848301820152016110fe565b90600091825481101561116d57600590838052027f290decd9548b62a8d60345a988386fc84ba6bc95484008f6362f93160ef3e563019190565b634e487b7160e01b83526032600452602483fd5b90600182811c921680156111b1575b602083101461119b57565b634e487b7160e01b600052602260045260246000fd5b91607f1691611190565b60c0810190811067ffffffffffffffff8211176108b657604052565b90601f8019910116810190811067ffffffffffffffff8211176108b657604052565b9060405191826000825461120c81611181565b9081845260209460019160018116908160001461127c575060011461123d575b50505061123b925003836111d7565b565b600090815285812095935091905b81831061126457505061123b935082010138808061122c565b8554888401850152948501948794509183019161124b565b9250505061123b94925060ff191682840152151560051b82010138808061122c565b926112d896959260c0959260018060a01b031685526020850152151560408401521515606083015260808201528160a082015201906110f3565b90565b156112e257565b60405162461bcd60e51b815260206004820152600a60248201526927b7363c9037bbb732b960b11b6044820152606490fd5b1561131b57565b60405162461bcd60e51b815260206004820152600d60248201526c092dcecc2d8d2c840d2dcc8caf609b1b6044820152606490fd5b67ffffffffffffffff81116108b65760051b60200190565b9061137282611350565b61137f60405191826111d7565b8281528092611390601f1991611350565b0190602036910137565b80518210156113ae5760209160051b010190565b634e487b7160e01b600052603260045260246000fd5b60001981146105405760010190565b9190820180921161054057565b81156113ea570490565b634e487b7160e01b600052601260045260246000fd5b81811061140b575050565b60008155600101611400565b9190601f811161142657505050565b61123b926000526020600020906020601f840160051c83019310611452575b601f0160051c0190611400565b9091508190611445565b9190820391821161054057565b908082146115495761147b8154611181565b9067ffffffffffffffff82116108b65761149f826114998554611181565b85611417565b600090601f83116001146114de576114cf9291600091836114d35750508160011b916000199060031b1c19161790565b9055565b0154905038806107db565b815260208082208483528183209291601f1985169083905b828210611530575050908460019594939210611517575b505050811b019055565b015460001960f88460031b161c1916905538808061150d565b84958192958501548155600180910196019401906114f6565b5050565b600090815481101561162b5760208160ff600261156b600495611133565b50015460081c16156115f15761158090611133565b50546040516305ecd00360e01b815292839182906001600160a01b03165afa9182156115e55780926115b157505090565b9091506020823d6020116115dd575b816115cd602093836111d7565b810103126115da57505190565b80fd5b3d91506115c0565b604051903d90823e3d90fd5b6115fa90611133565b505460405163371dbeaf60e21b815292839182906001600160a01b03165afa9182156115e55780926115b157505090565b60405162461bcd60e51b8152602060048201526014602482015273092dcecc2d8d2c840dee4c2c6d8ca40d2dcc8caf60631b6044820152606490fd5b811561179457600191828114611783576000835b6116c3575b508083166116b457821c906000198201828111610540576116af926116a8610efe928461139a565b519261139a565b901c90565b6116bf921c9061139a565b5190565b6000198281019083821161054057859183101561177c57600090825b6116ef575b50508091019061167b565b9091506116fc838561145c565b818101908111610540578690831015611776575061171a828661139a565b51868301928381116105405787938492611734828a61139a565b5110611744575b500190826116df565b61176f611751838a61139a565b519161175d818b61139a565b51611768858c61139a565b528961139a565b523861173b565b916116e4565b5050611680565b5080915051156113ae576020015190565b5050600090565b81156117945781808211156117d2576117b39161145c565b905b61271091828102928184041490151715610540576112d8916113e0565b906117dc9161145c565b906117b556fea2646970667358221220c88f4fd836f88809136595180de194360c8c7a46022a1f993ede0b432800155a64736f6c63430008180033",
  "linkReferences": {},
  "deployedLinkReferences": {}
}