{
  "_format": "hh-sol-artifact-1",
  "contractName": "SimpleAMM",
  "sourceName": "contracts/SimpleAMM.sol",
  "abi": [
    {
      "inputs": [
        {
          "internalType": "address",
          "name": "_tokenA",
          "type": "address"
        },
        {
          "internalType": "address",
          "name": "_tokenB",
          "type": "address"
        }
      ],
      "stateMutability": "nonpayable",
      "type": "constructor"
    },
    {
      "inputs": [],
      "name": "BP_DIVISOR",
      "outputs": [
        {
          "internalType": "uint256",
          "name": "",
          "type": "uint256"
        }
      ],
      "stateMutability": "view",
      "type": "function"
    },
    {
      "inputs": [],
      "name": "FEE_BP",
      "outputs": [
        {
          "internalType": "uint256",
          "name": "",
          "type": "uint256"
        }
      ],
      "stateMutability": "view",
      "type": "function"
    },
    {
      "inputs": [
        {
          "internalType": "uint256",
          "name": "amountA",
          "type": "uint256"
        },
        {
          "internalType": "uint256",
          "name": "amountB",
          "type": "uint256"
        }
      ],
      "name": "addLiquidity",
      "outputs": [],
      "stateMutability": "nonpayable",
      "type": "function"
    },
    {
      "inputs": [],
      "name": "getSpotPrice",
      "outputs": [
        {
          "internalType": "uint256",
          "name": "",
          "type": "uint256"
        }
      ],
      "stateMutability": "view",
      "type": "function"
    },
    {
      "inputs": [],
      "name": "reserveA",
      "outputs": [
        {
          "internalType": "uint256",
          "name": "",
          "type": "uint256"
        }
      ],
      "stateMutability": "view",
      "type": "function"
    },
    {
      "inputs": [],
      "name": "reserveB",
      "outputs": [
        {
          "internalType": "uint256",
          "name": "",
          "type": "uint256"
        }
      ],
      "stateMutability": "view",
      "type": "function"
    },
    {
      "inputs": [
        {
          "internalType": "uint256",
          "name": "amountIn",
          "type": "uint256"
        }
      ],
      "name": "swapAForB",
      "outputs": [
        {
          "internalType": "uint256",
          "name": "amountOut",
          "type": "uint256"
        }
      ],
      "stateMutability": "nonpayable",
      "type": "function"
    },
    {
      "inputs": [],
      "name": "tokenA",
      "outputs": [
        {
          "internalType": "contract IERC20",
          "name": "",
          "type": "address"
        }
      ],
      "stateMutability": "view",
      "type": "function"
    },
    {
      "inputs": [],
      "name": "tokenB",
      "outputs": [
        {
          "internalType": "contract IERC20",
          "name": "",
          "type": "address"
        }
      ],
      "stateMutability": "view",
      "type": "function"
    }
  ],
  "bytecode": "0x608060405234801561001057600080fd5b50604051610cf9380380610cf98339818101604052810190610032919061011d565b816000806101000a81548173ffffffffffffffffffffffffffffffffffffffff021916908373ffffffffffffffffffffffffffffffffffffffff16021790555080600160006101000a81548173ffffffffffffffffffffffffffffffffffffffff021916908373ffffffffffffffffffffffffffffffffffffffff160217905550505061015d565b600080fd5b600073ffffffffffffffffffffffffffffffffffffffff82169050919050565b60006100ea826100bf565b9050919050565b6100fa816100df565b811461010557600080fd5b50565b600081519050610117816100f1565b92915050565b60008060408385031215610134576101336100ba565b5b600061014285828601610108565b925050602061015385828601610108565b9150509250929050565b610b8d8061016c6000396000f3fe608060405234801561001057600080fd5b50600436106100935760003560e01c8063752f746611610066578063752f7466146101225780639cd441da14610140578063af8317681461015c578063dc5fa6c51461017a578063dc76fabc1461019857610093565b806303102091146100985780630fc63d10146100c857806319e36f3b146100e65780635f64b55b14610104575b600080fd5b6100b260048036038101906100ad91906106b2565b6101b6565b6040516100bf91906106ee565b60405180910390f35b6100d06103d1565b6040516100dd9190610788565b60405180910390f35b6100ee6103f5565b6040516100fb91906106ee565b60405180910390f35b61010c6103fb565b6040516101199190610788565b60405180910390f35b61012a610421565b60405161013791906106ee565b60405180910390f35b61015a600480360381019061015591906107a3565b610427565b005b6101646105f0565b60405161017191906106ee565b60405180910390f35b6101826105f5565b60405161018f91906106ee565b60405180910390f35b6101a06105fb565b6040516101ad91906106ee565b60405180910390f35b60008082116101fa576040517f08c379a00000000000000000000000000000000000000000000000000000000081526004016101f190610840565b60405180910390fd5b60008054906101000a900473ffffffffffffffffffffffffffffffffffffffff1673ffffffffffffffffffffffffffffffffffffffff166323b872dd3330856040518463ffffffff1660e01b815260040161025793929190610881565b6020604051808303816000875af1158015610276573d6000803e3d6000fd5b505050506040513d601f19601f8201168201806040525081019061029a91906108f0565b506000612710601e6127106102af919061094c565b846102ba9190610980565b6102c491906109f1565b90506000816002546102d69190610a22565b905060006003546002546102ea9190610980565b9050600082826102fa91906109f1565b90508060035461030a919061094c565b9450600160009054906101000a900473ffffffffffffffffffffffffffffffffffffffff1673ffffffffffffffffffffffffffffffffffffffff1663a9059cbb33876040518363ffffffff1660e01b8152600401610369929190610a56565b6020604051808303816000875af1158015610388573d6000803e3d6000fd5b505050506040513d601f19601f820116820180604052508101906103ac91906108f0565b50856002546103bb9190610a22565b6002819055508060038190555050505050919050565b60008054906101000a900473ffffffffffffffffffffffffffffffffffffffff1681565b60035481565b600160009054906101000a900473ffffffffffffffffffffffffffffffffffffffff1681565b61271081565b6000821180156104375750600081115b610476576040517f08c379a000000000000000000000000000000000000000000000000000000000815260040161046d90610acb565b60405180910390fd5b60008054906101000a900473ffffffffffffffffffffffffffffffffffffffff1673ffffffffffffffffffffffffffffffffffffffff166323b872dd3330856040518463ffffffff1660e01b81526004016104d393929190610881565b6020604051808303816000875af11580156104f2573d6000803e3d6000fd5b505050506040513d601f19601f8201168201806040525081019061051691906108f0565b50600160009054906101000a900473ffffffffffffffffffffffffffffffffffffffff1673ffffffffffffffffffffffffffffffffffffffff166323b872dd3330846040518463ffffffff1660e01b815260040161057693929190610881565b6020604051808303816000875af1158015610595573d6000803e3d6000fd5b505050506040513d601f19601f820116820180604052508101906105b991906108f0565b5081600260008282546105cc9190610a22565b9250508190555080600360008282546105e59190610a22565b925050819055505050565b601e81565b60025481565b60008060025411801561061057506000600354115b61064f576040517f08c379a000000000000000000000000000000000000000000000000000000000815260040161064690610b37565b60405180910390fd5b600254670de0b6b3a76400006003546106689190610980565b61067291906109f1565b905090565b600080fd5b6000819050919050565b61068f8161067c565b811461069a57600080fd5b50565b6000813590506106ac81610686565b92915050565b6000602082840312156106c8576106c7610677565b5b60006106d68482850161069d565b91505092915050565b6106e88161067c565b82525050565b600060208201905061070360008301846106df565b92915050565b600073ffffffffffffffffffffffffffffffffffffffff82169050919050565b6000819050919050565b600061074e61074961074484610709565b610729565b610709565b9050919050565b600061076082610733565b9050919050565b600061077282610755565b9050919050565b61078281610767565b82525050565b600060208201905061079d6000830184610779565b92915050565b600080604083850312156107ba576107b9610677565b5b60006107c88582860161069d565b92505060206107d98582860161069d565b9150509250929050565b600082825260208201905092915050565b7f7a65726f20696e70757400000000000000000000000000000000000000000000600082015250565b600061082a600a836107e3565b9150610835826107f4565b602082019050919050565b600060208201905081810360008301526108598161081d565b9050919050565b600061086b82610709565b9050919050565b61087b81610860565b82525050565b60006060820190506108966000830186610872565b6108a36020830185610872565b6108b060408301846106df565b949350505050565b60008115159050919050565b6108cd816108b8565b81146108d857600080fd5b50565b6000815190506108ea816108c4565b92915050565b60006020828403121561090657610905610677565b5b6000610914848285016108db565b91505092915050565b7f4e487b7100000000000000000000000000000000000000000000000000000000600052601160045260246000fd5b60006109578261067c565b91506109628361067c565b925082820390508181111561097a5761097961091d565b5b92915050565b600061098b8261067c565b91506109968361067c565b92508282026109a48161067c565b915082820484148315176109bb576109ba61091d565b5b5092915050565b7f4e487b7100000000000000000000000000000000000000000000000000000000600052601260045260246000fd5b60006109fc8261067c565b9150610a078361067c565b925082610a1757610a166109c2565b5b828204905092915050565b6000610a2d8261067c565b9150610a388361067c565b9250828201905080821115610a5057610a4f61091d565b5b92915050565b6000604082019050610a6b6000830185610872565b610a7860208301846106df565b9392505050565b7f696e76616c696420616d6f756e74730000000000000000000000000000000000600082015250565b6000610ab5600f836107e3565b9150610ac082610a7f565b602082019050919050565b60006020820190508181036000830152610ae481610aa8565b9050919050565b7f656d707479207265736572766573000000000000000000000000000000000000600082015250565b6000610b21600e836107e3565b9150610b2c82610aeb565b602082019050919050565b60006020820190508181036000830152610b5081610b14565b905091905056fea26469706673582212207c59c62602b93d5ae9065d34787db484fcd0f1d108b76ed6da4e4562be5b8ab664736f6c63430008180033",
  "linkReferences": {},
  "deployedLinkReferences": {}
}