{
  "_format": "hh-sol-artifact-1",
  "contractName": "SimpleAMM",
  "sourceName": "contracts/SimpleAMM.sol",
  "abi": [
    {
      "inputs": [
        {
          "internalType": "address",
          "name": "_tokenA",
          "type": "address"
        },
        {
          "internalType": "address",
          "name": "_tokenB",
          "type": "address"
        }
      ],
      "stateMutability": "nonpayable",
      "type": "constructor"
    },
    {
      "inputs": [],
      "name": "BP_DIVISOR",
      "outputs": [
        {
          "internalType": "uint256",
          "name": "",
          "type": "uint256"
        }
      ],
      "stateMutability": "view",
      "type": "function"
    },
    {
      "inputs": [],
      "name": "FEE_BP",
      "outputs": [
        {
          "internalType": "uint256",
          "name": "",
          "type": "uint256"
        }
      ],
      "stateMutability": "view",
      "type": "function"
    },
    {
      "inputs": [
        {
          "internalType": "uint256",
          "name": "amountA",
          "type": "uint256"
        },
        {
          "internalType": "uint256",
          "name": "amountB",
          "type": "uint256"
        }
      ],
      "name": "addLiquidity",
      "outputs": [],
      "stateMutability": "nonpayable",
      "type": "function"
    },
    {
      "inputs": [],
      "name": "getReserves",
      "outputs": [
        {
          "internalType": "uint256",
          "name": "",
          "type": "uint256"
        },
        {
          "internalType": "uint256",
          "name": "",
          "type": "uint256"
        }
      ],
      "stateMutability": "view",
      "type": "function"
    },
    {
      "inputs": [],
      "name": "getSpotPrice",
      "outputs": [
        {
          "internalType": "uint256",
          "name": "",
          "type": "uint256"
        }
      ],
      "stateMutability": "view",
      "type": "function"
    },
    {
      "inputs": [],
      "name": "reserveA",
      "outputs": [
        {
          "internalType": "uint256",
          "name": "",
          "type": "uint256"
        }
      ],
      "stateMutability": "view",
      "type": "function"
    },
    {
      "inputs": [],
      "name": "reserveB",
      "outputs": [
        {
          "internalType": "uint256",
          "name": "",
          "type": "uint256"
        }
      ],
      "stateMutability": "view",
      "type": "function"
    },
    {
      "inputs": [
        {
          "internalType": "uint256",
          "name": "amountIn",
          "type": "uint256"
        }
      ],
      "name": "swapAForB",
      "outputs": [
        {
          "internalType": "uint256",
          "name": "amountOut",
          "type": "uint256"
        }
      ],
      "stateMutability": "nonpayable",
      "type": "function"
    },
    {
      "inputs": [
        {
          "internalType": "uint256",
          "name": "amountIn",
          "type": "uint256"
        }
      ],
      "name": "swapBForA",
      "outputs": [
        {
          "internalType": "uint256",
          "name": "amountOut",
          "type": "uint256"
        }
      ],
      "stateMutability": "nonpayable",
      "type": "function"
    },
    {
      "inputs": [],
      "name": "tokenA",
      "outputs": [
        {
          "internalType": "contract IERC20",
          "name": "",
          "type": "address"
        }
      ],
      "stateMutability": "view",
      "type": "function"
    },
    {
      "inputs": [],
      "name": "tokenB",
      "outputs": [
        {
          "internalType": "contract IERC20",
          "name": "",
          "type": "address"
        }
      ],
      "stateMutability": "view",
      "type": "function"
    }
  ],
  "bytecode": "0x60803461008d57601f61085738819003918201601f19168301916001600160401b0383118484101761009257808492604094855283398101031261008d57610052602061004b836100a8565b92016100a8565b600080546001600160a01b039384166001600160a01b0319918216179091556001805492909316911617905560405161079a90816100bd8239f35b600080fd5b634e487b7160e01b600052604160045260246000fd5b51906001600160a01b038216820361008d5756fe60406080815260048036101561001457600080fd5b600091823560e01c8063031020911461051f5780630902f1ac146104fa5780630fc63d10146104d257806319e36f3b146104b35780635f64b55b1461048a578063752f74661461046d5780639cd441da146102f0578063af831768146102d4578063dc5fa6c5146102b1578063dc76fabc1461020d5763e619a4981461009957600080fd5b3461020957602092836003193601126102065782356100b981151561065c565b60015483516323b872dd60e01b815233868201908152306020820152604081018490526001600160a01b0394928891839187169082908690829060600103925af180156101fc579061017b92916101df575b50866127106101198561070d565b049461014761014061012e6003549889610757565b61013b600254998a610724565b610737565b80976106ea565b8354885163a9059cbb60e01b8152339a81019a8b5260208b0183905291999195869390911691839186918391604090910190565b03925af19081156101d457509061019b92916101a7575b50600354610757565b60035560025551908152f35b6101c690873d89116101cd575b6101be8183610695565b8101906106cd565b5038610192565b503d6101b4565b8551903d90823e3d90fd5b6101f590883d8a116101cd576101be8183610695565b503861010b565b85513d84823e3d90fd5b80fd5b8280fd5b5082346102065780600319360112610206576002549283158015806102a6575b1561027257670de0b6b3a764000080860295860414171561025f576020836102588660035490610737565b9051908152f35b634e487b7160e01b825260119052602490fd5b835162461bcd60e51b8152602081840152600e60248201526d656d70747920726573657276657360901b6044820152606490fd5b50600354151561022d565b8382346102d057816003193601126102d0576020906002549051908152f35b5080fd5b8382346102d057816003193601126102d05760209051601e8152f35b5090346102095781600319360112610209578035916024359183151580610464575b1561043057845482516323b872dd60e01b80825233848301908152306020808301919091526040820189905295949193919289926001600160a01b039288918391829003606001908290879087165af1801561042657926103ac9695928895928a95610409575b50600154875194855233938501938452306020850152604084019590955292968794939093169284928391606090910190565b03925af19081156104005750916103dc94916103d1936103e2575b5050600254610757565b600255600354610757565b60035580f35b816103f892903d106101cd576101be8183610695565b5038806103c7565b513d87823e3d90fd5b61041f90873d89116101cd576101be8183610695565b5038610379565b86513d85823e3d90fd5b6020606492519162461bcd60e51b8352820152600f60248201526e696e76616c696420616d6f756e747360881b6044820152fd5b50821515610312565b8382346102d057816003193601126102d057602090516127108152f35b8382346102d057816003193601126102d05760015490516001600160a01b039091168152602090f35b8382346102d057816003193601126102d0576020906003549051908152f35b8382346102d057816003193601126102d057905490516001600160a01b039091168152602090f35b5082346102065780600319360112610206575060025460035482519182526020820152f35b5034610209576020928360031936011261020657823561054081151561065c565b815483516323b872dd60e01b815233868201908152306020820152604081018490526001600160a01b0394928891839187169082908690829060600103925af180156101fc57906105f6929161063f575b508661271061059f8561070d565b04946105c16101406105b46002549889610757565b61013b600354809a610724565b600154885163a9059cbb60e01b8152339a81019a8b5260208b0183905291999195869390911691839186918391604090910190565b03925af19081156101d45750906106169291610622575b50600254610757565b60025560035551908152f35b61063890873d89116101cd576101be8183610695565b503861060d565b61065590883d8a116101cd576101be8183610695565b5038610591565b1561066357565b60405162461bcd60e51b815260206004820152600a6024820152691e995c9bc81a5b9c1d5d60b21b6044820152606490fd5b90601f8019910116810190811067ffffffffffffffff8211176106b757604052565b634e487b7160e01b600052604160045260246000fd5b908160209103126106e5575180151581036106e55790565b600080fd5b919082039182116106f757565b634e487b7160e01b600052601160045260246000fd5b906126f2918281029281840414901517156106f757565b818102929181159184041417156106f757565b8115610741570490565b634e487b7160e01b600052601260045260246000fd5b919082018092116106f75756fea2646970667358221220a7eb2ad6e26eb6ea0dcc13a44969c4c6983bd4471ffaad2a942f6b8d3023e47464736f6c63430008180033",
  "linkReferences": {},
  "deployedLinkReferences": {}
}