{
  "_format": "hh-sol-artifact-1",
  "contractName": "VulnerableLending",
  "sourceName": "contracts/VulnerableLending.sol",
  "abi": [
    {
      "inputs": [
        {
          "internalType": "address",
          "name": "_tokenA",
          "type": "address"
        },
        {
          "internalType": "address",
          "name": "_tokenB",
          "type": "address"
        },
        {
          "internalType": "address",
          "name": "_amm",
          "type": "address"
        }
      ],
      "stateMutability": "nonpayable",
      "type": "constructor"
    },
    {
      "inputs": [],
      "name": "BP",
      "outputs": [
        {
          "internalType": "uint256",
          "name": "",
          "type": "uint256"
        }
      ],
      "stateMutability": "view",
      "type": "function"
    },
    {
      "inputs": [],
      "name": "LTV_BP",
      "outputs": [
        {
          "internalType": "uint256",
          "name": "",
          "type": "uint256"
        }
      ],
      "stateMutability": "view",
      "type": "function"
    },
    {
      "inputs": [],
      "name": "amm",
      "outputs": [
        {
          "internalType": "contract ISimpleAMM",
          "name": "",
          "type": "address"
        }
      ],
      "stateMutability": "view",
      "type": "function"
    },
    {
      "inputs": [
        {
          "internalType": "uint256",
          "name": "amountB",
          "type": "uint256"
        }
      ],
      "name": "borrow",
      "outputs": [],
      "stateMutability": "nonpayable",
      "type": "function"
    },
    {
      "inputs": [
        {
          "internalType": "address",
          "name": "",
          "type": "address"
        }
      ],
      "name": "collateralA",
      "outputs": [
        {
          "internalType": "uint256",
          "name": "",
          "type": "uint256"
        }
      ],
      "stateMutability": "view",
      "type": "function"
    },
    {
      "inputs": [
        {
          "internalType": "address",
          "name": "",
          "type": "address"
        }
      ],
      "name": "debtB",
      "outputs": [
        {
          "internalType": "uint256",
          "name": "",
          "type": "uint256"
        }
      ],
      "stateMutability": "view",
      "type": "function"
    },
    {
      "inputs": [
        {
          "internalType": "uint256",
          "name": "amount",
          "type": "uint256"
        }
      ],
      "name": "depositCollateral",
      "outputs": [],
      "stateMutability": "nonpayable",
      "type": "function"
    },
    {
      "inputs": [
        {
          "internalType": "uint256",
          "name": "amountB",
          "type": "uint256"
        }
      ],
      "name": "fundPool",
      "outputs": [],
      "stateMutability": "nonpayable",
      "type": "function"
    },
    {
      "inputs": [
        {
          "internalType": "uint256",
          "name": "amountB",
          "type": "uint256"
        }
      ],
      "name": "repay",
      "outputs": [],
      "stateMutability": "nonpayable",
      "type": "function"
    },
    {
      "inputs": [],
      "name": "tokenA",
      "outputs": [
        {
          "internalType": "contract IERC20",
          "name": "",
          "type": "address"
        }
      ],
      "stateMutability": "view",
      "type": "function"
    },
    {
      "inputs": [],
      "name": "tokenB",
      "outputs": [
        {
          "internalType": "contract IERC20",
          "name": "",
          "type": "address"
        }
      ],
      "stateMutability": "view",
      "type": "function"
    }
  ],
  "bytecode": "0x60806040523480156200001157600080fd5b50604051620012b2380380620012b283398181016040528101906200003791906200016c565b826000806101000a81548173ffffffffffffffffffffffffffffffffffffffff021916908373ffffffffffffffffffffffffffffffffffffffff16021790555081600160006101000a81548173ffffffffffffffffffffffffffffffffffffffff021916908373ffffffffffffffffffffffffffffffffffffffff16021790555080600260006101000a81548173ffffffffffffffffffffffffffffffffffffffff021916908373ffffffffffffffffffffffffffffffffffffffff160217905550505050620001c8565b600080fd5b600073ffffffffffffffffffffffffffffffffffffffff82169050919050565b6000620001348262000107565b9050919050565b620001468162000127565b81146200015257600080fd5b50565b60008151905062000166816200013b565b92915050565b60008060006060848603121562000188576200018762000102565b5b6000620001988682870162000155565b9350506020620001ab8682870162000155565b9250506040620001be8682870162000155565b9150509250925092565b6110da80620001d86000396000f3fe608060405234801561001057600080fd5b50600436106100a95760003560e01c80639cfdbd5e116100715780639cfdbd5e14610154578063bad4a01f14610172578063c5ebeaec1461018e578063da3a5f72146101aa578063e643a0b1146101c6578063ff0f5dbc146101f6576100a9565b806303e43c3a146100ae5780630fc63d10146100de5780632a943945146100fc578063371fd8e61461011a5780635f64b55b14610136575b600080fd5b6100c860048036038101906100c39190610a9d565b610214565b6040516100d59190610ae3565b60405180910390f35b6100e661022c565b6040516100f39190610b5d565b60405180910390f35b610104610250565b6040516101119190610b99565b60405180910390f35b610134600480360381019061012f9190610be0565b610276565b005b61013e610446565b60405161014b9190610b5d565b60405180910390f35b61015c61046c565b6040516101699190610ae3565b60405180910390f35b61018c60048036038101906101879190610be0565b610472565b005b6101a860048036038101906101a39190610be0565b6105af565b005b6101c460048036038101906101bf9190610be0565b610976565b005b6101e060048036038101906101db9190610a9d565b610a1c565b6040516101ed9190610ae3565b60405180910390f35b6101fe610a34565b60405161020b9190610ae3565b60405180910390f35b60036020528060005260406000206000915090505481565b60008054906101000a900473ffffffffffffffffffffffffffffffffffffffff1681565b600260009054906101000a900473ffffffffffffffffffffffffffffffffffffffff1681565b600081116102b9576040517f08c379a00000000000000000000000000000000000000000000000000000000081526004016102b090610c6a565b60405180910390fd5b600160009054906101000a900473ffffffffffffffffffffffffffffffffffffffff1673ffffffffffffffffffffffffffffffffffffffff166323b872dd3330846040518463ffffffff1660e01b815260040161031893929190610c99565b6020604051808303816000875af1158015610337573d6000803e3d6000fd5b505050506040513d601f19601f8201168201806040525081019061035b9190610d08565b50600460003373ffffffffffffffffffffffffffffffffffffffff1673ffffffffffffffffffffffffffffffffffffffff1681526020019081526020016000205481106103ec576000600460003373ffffffffffffffffffffffffffffffffffffffff1673ffffffffffffffffffffffffffffffffffffffff16815260200190815260200160002081905550610443565b80600460003373ffffffffffffffffffffffffffffffffffffffff1673ffffffffffffffffffffffffffffffffffffffff168152602001908152602001600020600082825461043b9190610d64565b925050819055505b50565b600160009054906101000a900473ffffffffffffffffffffffffffffffffffffffff1681565b61271081565b600081116104b5576040517f08c379a00000000000000000000000000000000000000000000000000000000081526004016104ac90610de4565b60405180910390fd5b60008054906101000a900473ffffffffffffffffffffffffffffffffffffffff1673ffffffffffffffffffffffffffffffffffffffff166323b872dd3330846040518463ffffffff1660e01b815260040161051293929190610c99565b6020604051808303816000875af1158015610531573d6000803e3d6000fd5b505050506040513d601f19601f820116820180604052508101906105559190610d08565b5080600360003373ffffffffffffffffffffffffffffffffffffffff1673ffffffffffffffffffffffffffffffffffffffff16815260200190815260200160002060008282546105a59190610e04565b9250508190555050565b600081116105f2576040517f08c379a00000000000000000000000000000000000000000000000000000000081526004016105e990610e84565b60405180910390fd5b6000600260009054906101000a900473ffffffffffffffffffffffffffffffffffffffff1673ffffffffffffffffffffffffffffffffffffffff1663dc76fabc6040518163ffffffff1660e01b8152600401602060405180830381865afa158015610661573d6000803e3d6000fd5b505050506040513d601f19601f820116820180604052508101906106859190610eb9565b90506000670de0b6b3a764000082600360003373ffffffffffffffffffffffffffffffffffffffff1673ffffffffffffffffffffffffffffffffffffffff168152602001908152602001600020546106dd9190610ee6565b6106e79190610f57565b90506000612710611388836106fc9190610ee6565b6107069190610f57565b90508084600460003373ffffffffffffffffffffffffffffffffffffffff1673ffffffffffffffffffffffffffffffffffffffff168152602001908152602001600020546107549190610e04565b1115610795576040517f08c379a000000000000000000000000000000000000000000000000000000000815260040161078c90610fd4565b60405180910390fd5b6000600160009054906101000a900473ffffffffffffffffffffffffffffffffffffffff1673ffffffffffffffffffffffffffffffffffffffff166370a08231306040518263ffffffff1660e01b81526004016107f29190610ff4565b602060405180830381865afa15801561080f573d6000803e3d6000fd5b505050506040513d601f19601f820116820180604052508101906108339190610eb9565b905084811015610878576040517f08c379a000000000000000000000000000000000000000000000000000000000815260040161086f9061105b565b60405180910390fd5b84600460003373ffffffffffffffffffffffffffffffffffffffff1673ffffffffffffffffffffffffffffffffffffffff16815260200190815260200160002060008282546108c79190610e04565b92505081905550600160009054906101000a900473ffffffffffffffffffffffffffffffffffffffff1673ffffffffffffffffffffffffffffffffffffffff1663a9059cbb33876040518363ffffffff1660e01b815260040161092b92919061107b565b6020604051808303816000875af115801561094a573d6000803e3d6000fd5b505050506040513d601f19601f8201168201806040525081019061096e9190610d08565b505050505050565b600160009054906101000a900473ffffffffffffffffffffffffffffffffffffffff1673ffffffffffffffffffffffffffffffffffffffff166323b872dd3330846040518463ffffffff1660e01b81526004016109d593929190610c99565b6020604051808303816000875af11580156109f4573d6000803e3d6000fd5b505050506040513d601f19601f82011682018060405250810190610a189190610d08565b5050565b60046020528060005260406000206000915090505481565b61138881565b600080fd5b600073ffffffffffffffffffffffffffffffffffffffff82169050919050565b6000610a6a82610a3f565b9050919050565b610a7a81610a5f565b8114610a8557600080fd5b50565b600081359050610a9781610a71565b92915050565b600060208284031215610ab357610ab2610a3a565b5b6000610ac184828501610a88565b91505092915050565b6000819050919050565b610add81610aca565b82525050565b6000602082019050610af86000830184610ad4565b92915050565b6000819050919050565b6000610b23610b1e610b1984610a3f565b610afe565b610a3f565b9050919050565b6000610b3582610b08565b9050919050565b6000610b4782610b2a565b9050919050565b610b5781610b3c565b82525050565b6000602082019050610b726000830184610b4e565b92915050565b6000610b8382610b2a565b9050919050565b610b9381610b78565b82525050565b6000602082019050610bae6000830184610b8a565b92915050565b610bbd81610aca565b8114610bc857600080fd5b50565b600081359050610bda81610bb4565b92915050565b600060208284031215610bf657610bf5610a3a565b5b6000610c0484828501610bcb565b91505092915050565b600082825260208201905092915050565b7f7a65726f00000000000000000000000000000000000000000000000000000000600082015250565b6000610c54600483610c0d565b9150610c5f82610c1e565b602082019050919050565b60006020820190508181036000830152610c8381610c47565b9050919050565b610c9381610a5f565b82525050565b6000606082019050610cae6000830186610c8a565b610cbb6020830185610c8a565b610cc86040830184610ad4565b949350505050565b60008115159050919050565b610ce581610cd0565b8114610cf057600080fd5b50565b600081519050610d0281610cdc565b92915050565b600060208284031215610d1e57610d1d610a3a565b5b6000610d2c84828501610cf3565b91505092915050565b7f4e487b7100000000000000000000000000000000000000000000000000000000600052601160045260246000fd5b6000610d6f82610aca565b9150610d7a83610aca565b9250828203905081811115610d9257610d91610d35565b5b92915050565b7f7a65726f206465706f7369740000000000000000000000000000000000000000600082015250565b6000610dce600c83610c0d565b9150610dd982610d98565b602082019050919050565b60006020820190508181036000830152610dfd81610dc1565b9050919050565b6000610e0f82610aca565b9150610e1a83610aca565b9250828201905080821115610e3257610e31610d35565b5b92915050565b7f7a65726f20626f72726f77000000000000000000000000000000000000000000600082015250565b6000610e6e600b83610c0d565b9150610e7982610e38565b602082019050919050565b60006020820190508181036000830152610e9d81610e61565b9050919050565b600081519050610eb381610bb4565b92915050565b600060208284031215610ecf57610ece610a3a565b5b6000610edd84828501610ea4565b91505092915050565b6000610ef182610aca565b9150610efc83610aca565b9250828202610f0a81610aca565b91508282048414831517610f2157610f20610d35565b5b5092915050565b7f4e487b7100000000000000000000000000000000000000000000000000000000600052601260045260246000fd5b6000610f6282610aca565b9150610f6d83610aca565b925082610f7d57610f7c610f28565b5b828204905092915050565b7f6578636565647320616c6c6f7765640000000000000000000000000000000000600082015250565b6000610fbe600f83610c0d565b9150610fc982610f88565b602082019050919050565b60006020820190508181036000830152610fed81610fb1565b9050919050565b60006020820190506110096000830184610c8a565b92915050565b7f696e73756666696369656e7420706f6f6c000000000000000000000000000000600082015250565b6000611045601183610c0d565b91506110508261100f565b602082019050919050565b6000602082019050818103600083015261107481611038565b9050919050565b60006040820190506110906000830185610c8a565b61109d6020830184610ad4565b939250505056fea26469706673582212206a3f8024f3e180607846c080c92c3f547cdaf51b46779f9904aa5e56920d4a3864736f6c63430008180033",
  "linkReferences": {},
  "deployedLinkReferences": {}
}