{
  "_format": "hh-sol-artifact-1",
  "contractName": "VulnerableLending",
  "sourceName": "contracts/VulnerableLending.sol",
  "abi": [
    {
      "inputs": [
        {
          "internalType": "address",
          "name": "_tokenA",
          "type": "address"
        },
        {
          "internalType": "address",
          "name": "_tokenB",
          "type": "address"
        },
        {
          "internalType": "address",
          "name": "_amm",
          "type": "address"
        }
      ],
      "stateMutability": "nonpayable",
      "type": "constructor"
    },
    {
      "inputs": [],
      "name": "BP",
      "outputs": [
        {
          "internalType": "uint256",
          "name": "",
          "type": "uint256"
        }
      ],
      "stateMutability": "view",
      "type": "function"
    },
    {
      "inputs": [],
      "name": "LTV_BP",
      "outputs": [
        {
          "internalType": "uint256",
          "name": "",
          "type": "uint256"
        }
      ],
      "stateMutability": "view",
      "type": "function"
    },
    {
      "inputs": [],
      "name": "amm",
      "outputs": [
        {
          "internalType": "contract ISimpleAMM",
          "name": "",
          "type": "address"
        }
      ],
      "stateMutability": "view",
      "type": "function"
    },
    {
      "inputs": [
        {
          "internalType": "uint256",
          "name": "amountA",
          "type": "uint256"
        }
      ],
      "name": "borrow",
      "outputs": [],
      "stateMutability": "nonpayable",
      "type": "function"
    },
    {
      "inputs": [
        {
          "internalType": "address",
          "name": "",
          "type": "address"
        }
      ],
      "name": "collateralB",
      "outputs": [
        {
          "internalType": "uint256",
          "name": "",
          "type": "uint256"
        }
      ],
      "stateMutability": "view",
      "type": "function"
    },
    {
      "inputs": [
        {
          "internalType": "address",
          "name": "",
          "type": "address"
        }
      ],
      "name": "debtA",
      "outputs": [
        {
          "internalType": "uint256",
          "name": "",
          "type": "uint256"
        }
      ],
      "stateMutability": "view",
      "type": "function"
    },
    {
      "inputs": [
        {
          "internalType": "uint256",
          "name": "amount",
          "type": "uint256"
        }
      ],
      "name": "depositCollateral",
      "outputs": [],
      "stateMutability": "nonpayable",
      "type": "function"
    },
    {
      "inputs": [
        {
          "internalType": "uint256",
          "name": "amountA",
          "type": "uint256"
        }
      ],
      "name": "fundPool",
      "outputs": [],
      "stateMutability": "nonpayable",
      "type": "function"
    },
    {
      "inputs": [
        {
          "internalType": "address",
          "name": "user",
          "type": "address"
        }
      ],
      "name": "getBorrowingPower",
      "outputs": [
        {
          "internalType": "uint256",
          "name": "maxBorrowA",
          "type": "uint256"
        },
        {
          "internalType": "uint256",
          "name": "currentDebtA",
          "type": "uint256"
        },
        {
          "internalType": "uint256",
          "name": "availableBorrowA",
          "type": "uint256"
        }
      ],
      "stateMutability": "view",
      "type": "function"
    },
    {
      "inputs": [
        {
          "internalType": "uint256",
          "name": "amountA",
          "type": "uint256"
        }
      ],
      "name": "repay",
      "outputs": [],
      "stateMutability": "nonpayable",
      "type": "function"
    },
    {
      "inputs": [],
      "name": "tokenA",
      "outputs": [
        {
          "internalType": "contract IERC20",
          "name": "",
          "type": "address"
        }
      ],
      "stateMutability": "view",
      "type": "function"
    },
    {
      "inputs": [],
      "name": "tokenB",
      "outputs": [
        {
          "internalType": "contract IERC20",
          "name": "",
          "type": "address"
        }
      ],
      "stateMutability": "view",
      "type": "function"
    },
    {
      "inputs": [
        {
          "internalType": "uint256",
          "name": "amount",
          "type": "uint256"
        }
      ],
      "name": "withdrawCollateral",
      "outputs": [],
      "stateMutability": "nonpayable",
      "type": "function"
    }
  ],
  "bytecode": "0x6080346100a057601f610b7f38819003918201601f19168301916001600160401b038311848410176100a5578084926060946040528339810103126100a057610047816100bb565b906100606040610059602084016100bb565b92016100bb565b60018060a01b0380928160018060a01b031995168560005416176000551683600154161760015516906002541617600255604051610aaf90816100d08239f35b600080fd5b634e487b7160e01b600052604160045260246000fd5b51906001600160a01b03821682036100a05756fe608060408181526004918236101561001657600080fd5b600092833560e01c9182630fc63d10146109bd575081632a94394514610994578163371fd8e61461089f578163528a174c146107925781635f64b55b146107695781636112fe2e146105655781639cfdbd5e14610548578163bad4a01f1461046d578163c5ebeaec146101ee57838263da3a5f721461015157508163ebf7b35114610113578163f0c1020d146100d5575063ff0f5dbc146100b657600080fd5b346100d157816003193601126100d15760209051611d4c8152f35b5080fd5b90503461010f57602036600319011261010f57356001600160a01b0381169081900361010f57828291602094526003845220549051908152f35b8280fd5b90503461010f57602036600319011261010f5780356001600160a01b0381169081900361014d579282916020948252845220549051908152f35b8380fd5b929150346101ea5760203660031901126101ea57825482516323b872dd60e01b8152338184019081523060208281019190915293356040820152909485926001600160a01b031691839190829060600103925af19081156101e157506101b5575080f35b6101d69060203d6020116101da575b6101ce81836109e1565b810190610a19565b5080f35b503d6101c4565b513d84823e3d90fd5b5050fd5b8383346100d1576020908160031936011261010f578335801561043c57600254825163371dbeaf60e21b81526001600160a01b0391859082908990829086165afa9081156103bf57869161040d575b5061025b670de0b6b3a7640000913388526003875285882054610a59565b04611d4c908181029181830414901517156103fa5761271090338752878652046102888385882054610a6c565b116103c957602484828754168551928380926370a0823160e01b8252308c8301525afa9081156103bf57908391879161038a575b501061034e5761031492918685923388528184528488206102de848254610a6c565b90558754855163a9059cbb60e01b8152339381019384526020840194909452929586939190911691839189918391604090910190565b03925af19081156103455750610328578280f35b8161033e92903d106101da576101ce81836109e1565b5081808280f35b513d85823e3d90fd5b825162461bcd60e51b81528087018590526016602482015275696e73756666696369656e74206c697175696469747960501b6044820152606490fd5b809250868092503d83116103b8575b6103a381836109e1565b810103126103b457829051886102bc565b8580fd5b503d610399565b84513d88823e3d90fd5b825162461bcd60e51b8152808701859052600b60248201526a32bc31b2b2b23990262a2b60a91b6044820152606490fd5b634e487b7160e01b865260118752602486fd5b90508481813d8311610435575b61042481836109e1565b810103126103b4575161025b61023d565b503d61041a565b815162461bcd60e51b8152808601849052600b60248201526a7a65726f20626f72726f7760a81b6044820152606490fd5b9190503461010f5760208060031936011261014d5782359283156105185760015483516323b872dd60e01b81523392810192835230602084015260408301869052918391839182900360600190829089906001600160a01b03165af1801561050e57916003916104ec94936104f1575b50338652528320918254610a6c565b905580f35b61050790823d84116101da576101ce81836109e1565b50386104dd565b83513d87823e3d90fd5b915162461bcd60e51b815291820152600c60248201526b1e995c9bc819195c1bdcda5d60a21b6044820152606490fd5b5050346100d157816003193601126100d157602090516127108152f35b8383346100d1576020908160031936011261010f578335801561073457338452600383528082852054106106f157338452600383526105a78183862054610a36565b600254835163371dbeaf60e21b81526001600160a01b039291869082908a90829087165afa9081156106e75787916106ae575b506105ee90670de0b6b3a764000092610a59565b04611d4c908181029181830414901517156103fa576127109033875287865204838620541161066b57610314929186859233885260038452848820610634848254610a36565b9055600154855163a9059cbb60e01b8152339381019384526020840194909452929586939190911691839189918391604090910190565b825162461bcd60e51b8152808701859052601760248201527f7769746864726177616c2076696f6c61746573204c54560000000000000000006044820152606490fd5b90508581813d83116106e0575b6106c581836109e1565b810103126106dc5751670de0b6b3a76400006105da565b8680fd5b503d6106bb565b85513d89823e3d90fd5b815162461bcd60e51b8152808601849052601760248201527f696e73756666696369656e7420636f6c6c61746572616c0000000000000000006044820152606490fd5b815162461bcd60e51b8152808601849052600f60248201526e1e995c9bc81dda5d1a191c985dd85b608a1b6044820152606490fd5b5050346100d157816003193601126100d15760015490516001600160a01b039091168152602090f35b8383346100d1576020908160031936011261010f5783356001600160a01b0381811694918590036100d1578386916002541684519283809263371dbeaf60e21b82525afa908115610895578291610866575b50610802670de0b6b3a7640000918684526003865284842054610a59565b04611d4c908181029181830414901517156108535794612710606096049482528352818120549081851160001461084d575061083e8185610a36565b925b8251948552840152820152f35b92610840565b634e487b7160e01b825260118652602482fd5b90508381813d831161088e575b61087d81836109e1565b810103126100d157516108026107e4565b503d610873565b83513d84823e3d90fd5b8383346100d1576020928360031936011261010f578035801561096557835483516323b872dd60e01b8152338482019081523060208201526040810184905295968796909392849183916001600160a01b03169082908a90829060600103925af1801561095b5761093e575b50338552828252838520805490919080821061092e575050503384525281205580f35b9250925093506104ec9250610a36565b61095490833d85116101da576101ce81836109e1565b508661090b565b85513d88823e3d90fd5b5083606492519162461bcd60e51b8352820152600a6024820152697a65726f20726570617960b01b6044820152fd5b5050346100d157816003193601126100d15760025490516001600160a01b039091168152602090f35b8490346100d157816003193601126100d15790546001600160a01b03168152602090f35b90601f8019910116810190811067ffffffffffffffff821117610a0357604052565b634e487b7160e01b600052604160045260246000fd5b90816020910312610a3157518015158103610a315790565b600080fd5b91908203918211610a4357565b634e487b7160e01b600052601160045260246000fd5b81810292918115918404141715610a4357565b91908201809211610a435756fea264697066735822122015531446780987d9579749da78d44037ea27a9aa4ba3853a5dde6feb3a26fa6e64736f6c63430008180033",
  "linkReferences": {},
  "deployedLinkReferences": {}
}